{
  "address": "0x551990ecDA50d19abEe018562452464FD3BFd51F",
  "abi": [
    {
      "inputs": [
        {
          "internalType": "contract IVault",
          "name": "vault",
          "type": "address"
        }
      ],
      "stateMutability": "nonpayable",
      "type": "constructor"
    },
    {
      "anonymous": false,
      "inputs": [
        {
          "indexed": true,
          "internalType": "address",
          "name": "pool",
          "type": "address"
        }
      ],
      "name": "PoolCreated",
      "type": "event"
    },
    {
      "inputs": [
        {
          "internalType": "contract IERC20[]",
          "name": "tokens",
          "type": "address[]"
        },
        {
          "internalType": "uint256",
          "name": "amplificationParameter",
          "type": "uint256"
        },
        {
          "internalType": "uint256",
          "name": "swapFeePercentage",
          "type": "uint256"
        },
        {
          "internalType": "address",
          "name": "owner",
          "type": "address"
        }
      ],
      "name": "create",
      "outputs": [
        {
          "internalType": "address",
          "name": "",
          "type": "address"
        }
      ],
      "stateMutability": "nonpayable",
      "type": "function"
    },
    {
      "inputs": [],
      "name": "getPauseConfiguration",
      "outputs": [
        {
          "internalType": "uint256",
          "name": "pauseWindowDuration",
          "type": "uint256"
        },
        {
          "internalType": "uint256",
          "name": "bufferPeriodDuration",
          "type": "uint256"
        }
      ],
      "stateMutability": "view",
      "type": "function"
    },
    {
      "inputs": [],
      "name": "getVault",
      "outputs": [
        {
          "internalType": "contract IVault",
          "name": "",
          "type": "address"
        }
      ],
      "stateMutability": "view",
      "type": "function"
    },
    {
      "inputs": [
        {
          "internalType": "address",
          "name": "pool",
          "type": "address"
        }
      ],
      "name": "isPoolFromFactory",
      "outputs": [
        {
          "internalType": "bool",
          "name": "",
          "type": "bool"
        }
      ],
      "stateMutability": "view",
      "type": "function"
    }
  ],
  "transactionHash": "0xef9ae55a3479d2965897077046770a2a556e801a7a38f96d7c2513e995c10f86",
  "args": [
    "0xbF7bbBbFb97721B143F7c584E2285607DF517e57"
  ],
  "solcInputHash": "06a4917e6006009f934cbcfc26ea752b",
  "bytecode": "0x60c060405234801561001057600080fd5b50604051615d7f380380615d7f83398101604081905261002f9161004d565b60601b6001600160601b0319166080526276a700420160a05261007b565b60006020828403121561005e578081fd5b81516001600160a01b0381168114610074578182fd5b9392505050565b60805160601c60a051615cda6100a56000398060d652806101005250806101e45250615cda6000f3fe60806040523480156200001157600080fd5b5060043610620000525760003560e01c80632da47c401462000057578063461a686b146200007a5780636634b75314620000a05780638d928af814620000c6575b600080fd5b62000061620000d0565b604051620000719291906200050e565b60405180910390f35b620000916200008b366004620002c4565b6200013c565b6040516200007191906200040b565b620000b7620000b13660046200029e565b620001b7565b6040516200007191906200042c565b62000091620001e2565b600080427f00000000000000000000000000000000000000000000000000000000000000008110156200012e57807f000000000000000000000000000000000000000000000000000000000000000003925062278d00915062000137565b60009250600091505b509091565b60008060006200014b620000d0565b9150915060006200015b620001e2565b88888886868a6040516200016f906200027d565b62000181979695949392919062000437565b604051809103906000f0801580156200019e573d6000803e3d6000fd5b509050620001ac8162000206565b979650505050505050565b73ffffffffffffffffffffffffffffffffffffffff1660009081526020819052604090205460ff1690565b7f000000000000000000000000000000000000000000000000000000000000000090565b73ffffffffffffffffffffffffffffffffffffffff811660008181526020819052604080822080547fffffffffffffffffffffffffffffffffffffffffffffffffffffffffffffff00166001179055517f83a48fbcfc991335314e74d0496aab6a1987e992ddc85dddbcc4d6dd6ef2e9fc9190a250565b61573a806200056b83390190565b8035620002988162000544565b92915050565b600060208284031215620002b0578081fd5b8135620002bd8162000544565b9392505050565b60008060008060808587031215620002da578283fd5b843567ffffffffffffffff80821115620002f2578485fd5b818701915087601f83011262000306578485fd5b81358181111562000315578586fd5b60209150818102620003298382016200051c565b8281528381019085850183870186018d10156200034457898afd5b8996505b8487101562000372576200035d8d826200028b565b83526001969096019591850191850162000348565b509850505050860135935050604085013591506200039486606087016200028b565b905092959194509250565b73ffffffffffffffffffffffffffffffffffffffff169052565b6000815180845260208085019450808401835b838110156200040057815173ffffffffffffffffffffffffffffffffffffffff1687529582019590820190600101620003cc565b509495945050505050565b73ffffffffffffffffffffffffffffffffffffffff91909116815260200190565b901515815260200190565b600061012073ffffffffffffffffffffffffffffffffffffffff8a168352806020840152601581840152507f4e696c65526976657220537461626c6520506f6f6c0000000000000000000000610140830152610160806040840152600981840152507f4e494c452d34534c5000000000000000000000000000000000000000000000006101808301526101a0806060840152620004d78184018a620003b9565b9150508660808301528560a08301528460c08301528360e0830152620005026101008301846200039f565b98975050505050505050565b918252602082015260400190565b60405181810167ffffffffffffffff811182821017156200053c57600080fd5b604052919050565b73ffffffffffffffffffffffffffffffffffffffff811681146200056757600080fd5b5056fe6103e06040527f6e71edae12b1b97f4d1f60370fef10105fa2faae0126114a169c64845d6126c9610120523480156200003757600080fd5b506040516200573a3803806200573a8339810160408190526200005a9162000c25565b8886516002146200006d57600062000070565b60025b6040805180820190915260018152603160f81b602080830191909152336080526001600160601b0319606086901b1660a0528b518c928c928c928b928b928b928b92859285928b928b92849283929183918691620000d49160039185019062000a43565b508051620000ea90600490602084019062000a43565b50506005805460ff1916601217905550815160209283012060c052805191012060e05250507f8b73c3c69bb8fe3d512ecc4cf759cc79239f7b179b0ffacaa9a75d522b39400f6101005250620001496276a70083111561019462000699565b6200015d62278d0082111561019562000699565b42909101610140819052016101605284516200017f906002111560c862000699565b6200019760088651111560c96200069960201b60201c565b620001ad85620006ae60201b62000f8e1760201c565b620001b884620006ba565b6040516309b2760f60e01b81526000906001600160a01b038b16906309b2760f90620001e9908c9060040162000dc1565b602060405180830381600087803b1580156200020457600080fd5b505af115801562000219573d6000803e3d6000fd5b505050506040513d601f19601f820116820180604052508101906200023f919062000c0c565b9050896001600160a01b03166366a9c7d2828889516001600160401b03811180156200026a57600080fd5b5060405190808252806020026020018201604052801562000295578160200160208202803683370190505b506040518463ffffffff1660e01b8152600401620002b69392919062000d25565b600060405180830381600087803b158015620002d157600080fd5b505af1158015620002e6573d6000803e3d6000fd5b505087516001600160601b031960608e901b16610180526101a08490526101c0819052915050806200031a57600062000331565b866000815181106200032857fe5b60200260200101515b60601b6001600160601b0319166101e05260018111620003535760006200036a565b866001815181106200036157fe5b60200260200101515b60601b6001600160601b03191661020052600281116200038c576000620003a3565b866002815181106200039a57fe5b60200260200101515b60601b6001600160601b0319166102205260038111620003c5576000620003dc565b86600381518110620003d357fe5b60200260200101515b60601b6001600160601b0319166102405260048111620003fe57600062000415565b866004815181106200040c57fe5b60200260200101515b60601b6001600160601b0319166102605260058111620004375760006200044e565b866005815181106200044557fe5b60200260200101515b60601b6001600160601b03191661028052600681116200047057600062000487565b866006815181106200047e57fe5b60200260200101515b60601b6001600160601b0319166102a05260078111620004a9576000620004c0565b86600781518110620004b757fe5b60200260200101515b60601b6001600160601b0319166102c05280620004df57600062000505565b6200050587600081518110620004f157fe5b60200260200101516200074660201b60201c565b6102e052600181116200051a5760006200052c565b6200052c87600181518110620004f157fe5b61030052600281116200054157600062000553565b6200055387600281518110620004f157fe5b6103205260038111620005685760006200057a565b6200057a87600381518110620004f157fe5b61034052600481116200058f576000620005a1565b620005a187600481518110620004f157fe5b6103605260058111620005b6576000620005c8565b620005c887600581518110620004f157fe5b6103805260068111620005dd576000620005ef565b620005ef87600681518110620004f157fe5b6103a052600781116200060457600062000616565b6200061687600781518110620004f157fe5b6103c05250508e516200063c995060051015975061012f96505062000699945050505050565b6200064e600186101561012c62000699565b6200066161138886111561012d62000699565b60006200067c866103e8620007f260201b62000f981760201c565b9050620006898162000823565b5050505050505050505062000e43565b81620006aa57620006aa8162000862565b5050565b80620006aa81620008b5565b620006cf64e8d4a5100082101560cb62000699565b620006e767016345785d8a000082111560ca62000699565b620007068160c06008546200094260201b62000fbc179092919060201c565b6008556040517fa9ba3ffe0b6c366b81232caab38605a0699ad5398d6cce76f91ee809e322dafc906200073b90839062000dd6565b60405180910390a150565b600080826001600160a01b031663313ce5676040518163ffffffff1660e01b815260040160206040518083038186803b1580156200078357600080fd5b505afa15801562000798573d6000803e3d6000fd5b505050506040513d601f19601f82011682018060405250810190620007be919062000d02565b60ff1690506000620007dd6012836200095760201b62000fd21760201c565b600a0a670de0b6b3a764000002949350505050565b60008282026200081a841580620008125750838583816200080f57fe5b04145b600362000699565b90505b92915050565b62000831818042806200096f565b7fa0d01593e47e69d07e0ccd87bece09411e07dd1ed40ca8f2e7af2976542a0233816040516200073b919062000dd6565b62461bcd60e51b6000908152602060045260076024526642414c23000030600a808404818106603090810160081b95839006959095019082900491820690940160101b939093010160c81b604452606490fd5b600281511015620008c6576200093f565b600081600081518110620008d657fe5b602002602001015190506000600190505b82518110156200093c5760008382815181106200090057fe5b6020026020010151905062000931816001600160a01b0316846001600160a01b03161060656200069960201b60201c565b9150600101620008e7565b50505b50565b6001600160401b03811b1992909216911b1790565b60006200096983831115600162000699565b50900390565b62000990816001600160401b031660c062000a3f60201b62000fe81760201c565b620009b1836001600160401b0316608062000a3f60201b62000fe81760201c565b620009d2856001600160401b0316604062000a3f60201b62000fe81760201c565b620009f3876001600160401b0316600062000a3f60201b62000fe81760201c565b1717176009556040517f1835882ee7a34ac194f717a35e09bb1d24c82a3b9d854ab6c9749525b714cdf29062000a3190869086908690869062000ddf565b60405180910390a150505050565b1b90565b828054600181600116156101000203166002900490600052602060002090601f016020900481019282601f1062000a8657805160ff191683800117855562000ab6565b8280016001018555821562000ab6579182015b8281111562000ab657825182559160200191906001019062000a99565b5062000ac492915062000ac8565b5090565b5b8082111562000ac4576000815560010162000ac9565b80516200081d8162000e2d565b600082601f83011262000afd578081fd5b81516001600160401b0381111562000b13578182fd5b602080820262000b2582820162000dfa565b8381529350818401858301828701840188101562000b4257600080fd5b600092505b8483101562000b7257805162000b5d8162000e2d565b82526001929092019190830190830162000b47565b505050505092915050565b600082601f83011262000b8e578081fd5b81516001600160401b0381111562000ba4578182fd5b602062000bba601f8301601f1916820162000dfa565b9250818352848183860101111562000bd157600080fd5b60005b8281101562000bf157848101820151848201830152810162000bd4565b8281111562000c035760008284860101525b50505092915050565b60006020828403121562000c1e578081fd5b5051919050565b60008060008060008060008060006101208a8c03121562000c44578485fd5b62000c508b8b62000adf565b60208b01519099506001600160401b038082111562000c6d578687fd5b62000c7b8d838e0162000b7d565b995060408c015191508082111562000c91578687fd5b62000c9f8d838e0162000b7d565b985060608c015191508082111562000cb5578687fd5b5062000cc48c828d0162000aec565b96505060808a0151945060a08a0151935060c08a0151925060e08a0151915062000cf38b6101008c0162000adf565b90509295985092959850929598565b60006020828403121562000d14578081fd5b815160ff811681146200081a578182fd5b60006060820185835260206060818501528186518084526080860191508288019350845b8181101562000d715762000d5e855162000e21565b8352938301939183019160010162000d49565b505084810360408601528551808252908201925081860190845b8181101562000db35762000da0835162000e21565b8552938301939183019160010162000d8b565b509298975050505050505050565b602081016003831062000dd057fe5b91905290565b90815260200190565b93845260208401929092526040830152606082015260800190565b6040518181016001600160401b038111828210171562000e1957600080fd5b604052919050565b6001600160a01b031690565b6001600160a01b03811681146200093f57600080fd5b60805160a05160601c60c05160e051610100516101205161014051610160516101805160601c6101a0516101c0516101e05160601c6102005160601c6102205160601c6102405160601c6102605160601c6102805160601c6102a05160601c6102c05160601c6102e05161030051610320516103405161036051610380516103a0516103c05161479062000faa6000398061126c528061225652508061122952806121f55250806111e652806121945250806111a3528061213352508061116052806120d252508061111d52806120715250806110da52806120105250806110895280611faf52508061221b5250806121ba5250806121595250806120f8525080612097525080612036525080611fd5525080611f745280612ba9525080610fee5250806107b5525080610aec5250806115125250806114ee525080610cfe52508061176b5250806117ad52508061178c525080610ac8525080610a5252506147906000f3fe608060405234801561001057600080fd5b50600436106102265760003560e01c80636daccffa1161012a57806395d89b41116100bd578063aaabadc51161008c578063d5c096c411610071578063d5c096c41461046f578063dd62ed3e14610482578063eb0f24d61461049557610226565b8063aaabadc514610454578063d505accf1461045c57610226565b806395d89b41146104135780639d2c110c1461041b578063a457c2d71461042e578063a9059cbb1461044157610226565b8063851c1bb3116100f9578063851c1bb3146103d057806387ec6817146103e3578063893d20e8146103f65780638d928af81461040b57610226565b80636daccffa1461037257806370a082311461038957806374f3b0091461039c5780637ecebe00146103bd57610226565b8063313ce567116101bd578063395093511161018c57806355c676281161017157806355c67628146103415780636028bfd414610349578063679aefce1461036a57610226565b8063395093511461031b57806350dd6ed91461032e57610226565b8063313ce567146102e35780633644e515146102f857806338e9922e1461030057806338fff2d01461031357610226565b806318160ddd116101f957806318160ddd1461029e5780631c0de051146102a657806323b872dd146102bd5780632f1a0bc9146102d057610226565b806301ec954a1461022b57806306fdde0314610254578063095ea7b31461026957806316c38b3c14610289575b600080fd5b61023e610239366004614315565b61049d565b60405161024b91906145a2565b60405180910390f35b61025c6104fc565b60405161024b9190614678565b61027c610277366004613f8e565b6105b1565b60405161024b919061457f565b61029c610297366004614085565b6105c8565b005b61023e6105dc565b6102ae6105e2565b60405161024b9392919061458a565b61027c6102cb366004613ed9565b61060b565b61029c6102de3660046143ea565b61069f565b6102eb610782565b60405161024b91906146d5565b61023e61078b565b61029c61030e3660046143d2565b61079a565b61023e6107b3565b61027c610329366004613f8e565b6107d7565b61029c61033c3660046141bc565b610812565b61023e610830565b61035c6103573660046140bd565b610841565b60405161024b92919061468b565b61023e610878565b61037a610956565b60405161024b939291906146a4565b61023e610397366004613e85565b610971565b6103af6103aa3660046140bd565b610990565b60405161024b92919061455a565b61023e6103cb366004613e85565b610a33565b61023e6103de366004614160565b610a4e565b61035c6103f13660046140bd565b610aa0565b6103fe610ac6565b60405161024b9190614546565b6103fe610aea565b61025c610b0e565b61023e610429366004614386565b610b8d565b61027c61043c366004613f8e565b610c74565b61027c61044f366004613f8e565b610cb2565b6103fe610cbf565b61029c61046a366004613f19565b610cc9565b6103af61047d3660046140bd565b610e12565b61023e610490366004613ea1565b610f37565b61029c610f62565b60006104b183836104ac610fec565b611010565b60606104bb61102d565b90506000865160018111156104cc57fe5b146104e3576104de86868686856112aa565b6104f0565b6104f08686868685611321565b9150505b949350505050565b60038054604080516020601f60027fffffffffffffffffffffffffffffffffffffffffffffffffffffffffffffffff6101006001881615020190951694909404938401819004810282018101909252828152606093909290918301828280156105a65780601f1061057b576101008083540402835291602001916105a6565b820191906000526020600020905b81548152906001019060200180831161058957829003601f168201915b505050505090505b90565b60006105be338484611385565b5060015b92915050565b6105d06113ed565b6105d981611433565b50565b60025490565b60008060006105ef6114cf565b1592506105fa6114ec565b9150610604611510565b9050909192565b6000806106188533610f37565b905061063c336001600160a01b03871614806106345750838210155b61019e611534565b610647858585611542565b336001600160a01b0386161480159061068057507fffffffffffffffffffffffffffffffffffffffffffffffffffffffffffffffff8114155b15610692576106928533858403611385565b60019150505b9392505050565b6106a76113ed565b6106b7600183101561012c611534565b6106c861138883111561012d611534565b60006106d48242610fd2565b90506106e86201518082101561013d611534565b6000806106f3611622565b91509150610704811561013e611534565b6000610712866103e8610f98565b905060008382116107415761073c61072d6201518086610f98565b6107378488610f98565b611696565b61075b565b61075b6107516201518084610f98565b6107378688610f98565b905061076d600282111561013f611534565b610779848342896116c9565b50505050505050565b60055460ff1690565b6000610795611767565b905090565b6107a26113ed565b6107aa611804565b6105d981611819565b7f000000000000000000000000000000000000000000000000000000000000000090565b3360008181526001602090815260408083206001600160a01b038716845290915281205490916105be91859061080d9086611884565b611385565b61081a6113ed565b610822611804565b61082c8282611896565b5050565b6008546000906107959060c06119ae565b600060606108578651610852610fec565b6119bc565b61086c898989898989896119c9611a6d611ace565b97509795505050505050565b60006060610884610aea565b6001600160a01b031663f94d466861089a6107b3565b6040518263ffffffff1660e01b81526004016108b691906145a2565b60006040518083038186803b1580156108ce57600080fd5b505afa1580156108e2573d6000803e3d6000fd5b505050506040513d6000823e601f3d908101601f1916820160405261090a9190810190613fb9565b509150506000610918611622565b50905061092c8261092761102d565b611c5e565b600061093a82846000611cbf565b905061094e6109476105dc565b8290611e5b565b935050505090565b6000806000610963611622565b90949093506103e892509050565b6001600160a01b0381166000908152602081905260409020545b919050565b606080886109ba61099f610aea565b6001600160a01b0316336001600160a01b03161460cd611534565b6109cf6109c56107b3565b82146101f4611534565b60606109d961102d565b90506109e58882611c5e565b60006060806109fa8e8e8e8e8e8e8a8f6119c9565b925092509250610a0a8d84611eac565b610a148285611a6d565b610a1e8185611a6d565b909550935050505b5097509795505050505050565b6001600160a01b031660009081526006602052604090205490565b60007f000000000000000000000000000000000000000000000000000000000000000082604051602001610a839291906144d0565b604051602081830303815290604052805190602001209050919050565b60006060610ab18651610852610fec565b61086c89898989898989611eb6611f0f611ace565b7f000000000000000000000000000000000000000000000000000000000000000090565b7f000000000000000000000000000000000000000000000000000000000000000090565b60048054604080516020601f60027fffffffffffffffffffffffffffffffffffffffffffffffffffffffffffffffff6101006001881615020190951694909404938401819004810282018101909252828152606093909290918301828280156105a65780601f1061057b576101008083540402835291602001916105a6565b600080610b9d8560200151611f70565b90506000610bae8660400151611f70565b9050600086516001811115610bbf57fe5b1415610c2557610bd28660600151612285565b6060870152610be185836122a6565b9450610bed84826122a6565b9350610bfd8660600151836122a6565b60608701526000610c0f8787876122b2565b9050610c1b81836122f6565b9350505050610698565b610c2f85836122a6565b9450610c3b84826122a6565b9350610c4b8660600151826122a6565b60608701526000610c5d878787612302565b9050610c698184612331565b9050610c1b8161233d565b600080610c813385610f37565b9050808310610c9b57610c9633856000611385565b610ca8565b610ca83385858403611385565b5060019392505050565b60006105be338484611542565b6000610795612363565b610cd78442111560d1611534565b6001600160a01b0387166000908152600660209081526040808320549051909291610d2e917f0000000000000000000000000000000000000000000000000000000000000000918c918c918c9188918d91016145ca565b6040516020818303038152906040528051906020012090506000610d51826123dd565b9050600060018288888860405160008152602001604052604051610d78949392919061465a565b6020604051602081039080840390855afa158015610d9a573d6000803e3d6000fd5b5050604051601f1901519150610ddc90506001600160a01b03821615801590610dd457508b6001600160a01b0316826001600160a01b0316145b6101f8611534565b6001600160a01b038b166000908152600660205260409020600185019055610e058b8b8b611385565b5050505050505050505050565b60608088610e2161099f610aea565b610e2c6109c56107b3565b6060610e3661102d565b9050610e406105dc565b610ee75760006060610e558d8d8d868b6123f9565b91509150610e6a620f424083101560cc611534565b610e786000620f4240612488565b610e878b620f42408403612488565b610e918184611f0f565b80610e9a610fec565b67ffffffffffffffff81118015610eb057600080fd5b50604051908082528060200260200182016040528015610eda578160200160208202803683370190505b5095509550505050610a26565b610ef18882611c5e565b6000606080610f068e8e8e8e8e8e8a8f611eb6565b925092509250610f168c84612488565b610f208285611f0f565b610f2a8185611a6d565b9095509350610a26915050565b6001600160a01b03918216600090815260016020908152604080832093909416825291909152205490565b610f6a6113ed565b600080610f75611622565b91509150610f8581610140611534565b61082c82612492565b8061082c816124cd565b6000828202610698841580610fb5575083858381610fb257fe5b04145b6003611534565b67ffffffffffffffff811b1992909216911b1790565b6000610fe2838311156001611534565b50900390565b1b90565b7f000000000000000000000000000000000000000000000000000000000000000090565b611028818410801561102157508183105b6064611534565b505050565b60606000611039610fec565b905060608167ffffffffffffffff8111801561105457600080fd5b5060405190808252806020026020018201604052801561107e578160200160208202803683370190505b50905081156110c6577f0000000000000000000000000000000000000000000000000000000000000000816000815181106110b557fe5b6020026020010181815250506110cf565b91506105ae9050565b60018211156110c6577f00000000000000000000000000000000000000000000000000000000000000008160018151811061110657fe5b60200260200101818152505060028211156110c6577f00000000000000000000000000000000000000000000000000000000000000008160028151811061114957fe5b60200260200101818152505060038211156110c6577f00000000000000000000000000000000000000000000000000000000000000008160038151811061118c57fe5b60200260200101818152505060048211156110c6577f0000000000000000000000000000000000000000000000000000000000000000816004815181106111cf57fe5b60200260200101818152505060058211156110c6577f00000000000000000000000000000000000000000000000000000000000000008160058151811061121257fe5b60200260200101818152505060068211156110c6577f00000000000000000000000000000000000000000000000000000000000000008160068151811061125557fe5b60200260200101818152505060078211156110c6577f00000000000000000000000000000000000000000000000000000000000000008160078151811061129857fe5b60200260200101818152505091505090565b60006112b68583611c5e565b6112d786606001518385815181106112ca57fe5b60200260200101516122a6565b606087015260006112ea87878787612546565b9050611309818487815181106112fc57fe5b6020026020010151612331565b90506113148161233d565b9150505b95945050505050565b60006113308660600151612285565b606087015261133f8583611c5e565b61135386606001518386815181106112ca57fe5b6060870152600061136687878787612570565b90506113148184868151811061137857fe5b60200260200101516122f6565b6001600160a01b0380841660008181526001602090815260408083209487168084529490915290819020849055517f8c5be1e5ebec7d5bd14f71427d1e84f3dd0314c0f7b2291e5b200ac8c7c3b925906113e09085906145a2565b60405180910390a3505050565b600061141c6000357fffffffff0000000000000000000000000000000000000000000000000000000016610a4e565b90506105d961142b823361259a565b610191611534565b80156114535761144e6114446114ec565b4210610193611534565b611468565b61146861145e611510565b42106101a9611534565b600780547fffffffffffffffffffffffffffffffffffffffffffffffffffffffffffffff00168215151790556040517f9e3a5e37224532dea67b89face185703738a228a6e8a23dee546960180d3be64906114c490839061457f565b60405180910390a150565b60006114d9611510565b42118061079557505060075460ff161590565b7f000000000000000000000000000000000000000000000000000000000000000090565b7f000000000000000000000000000000000000000000000000000000000000000090565b8161082c5761082c8161268a565b6115596001600160a01b0384161515610198611534565b6115706001600160a01b0383161515610199611534565b61157b838383611028565b6001600160a01b0383166000908152602081905260409020546115a190826101a06126f7565b6001600160a01b0380851660009081526020819052604080822093909355908416815220546115d09082611884565b6001600160a01b0380841660008181526020819052604090819020939093559151908516907fddf252ad1be2c89b69c2b068fc378daa952ba7f163c4a11628f55a4df523b3ef906113e09085906145a2565b60008060008060008061163361270d565b93509350935093508042101561168657600194508383111561166a57818103824203858503028161166057fe5b0484019550611681565b818103824203848603028161167b57fe5b04840395505b61168e565b600094508295505b505050509091565b60006116a58215156004611534565b826116b2575060006105c2565b8160018403816116be57fe5b0460010190506105c2565b6116de8167ffffffffffffffff1660c0610fe8565b6116f38367ffffffffffffffff166080610fe8565b6117088567ffffffffffffffff166040610fe8565b61171d8767ffffffffffffffff166000610fe8565b1717176009556040517f1835882ee7a34ac194f717a35e09bb1d24c82a3b9d854ab6c9749525b714cdf2906117599086908690869086906146ba565b60405180910390a150505050565b60007f00000000000000000000000000000000000000000000000000000000000000007f00000000000000000000000000000000000000000000000000000000000000007f00000000000000000000000000000000000000000000000000000000000000006117d4612764565b306040516020016117e99594939291906145fe565b60405160208183030381529060405280519060200120905090565b61181761180f6114cf565b610192611534565b565b61182c64e8d4a5100082101560cb611534565b61184267016345785d8a000082111560ca611534565b600854611851908260c0610fbc565b6008556040517fa9ba3ffe0b6c366b81232caab38605a0699ad5398d6cce76f91ee809e322dafc906114c49083906145a2565b60008282016106988482101583611534565b60006118a06107b3565b905060006118ac610aea565b6001600160a01b031663b05f8e4883866040518363ffffffff1660e01b81526004016118d9929190614643565b60806040518083038186803b1580156118f157600080fd5b505afa158015611905573d6000803e3d6000fd5b505050506040513d601f19601f82011682018060405250810190611929919061440b565b6040517f18e736d40000000000000000000000000000000000000000000000000000000081529094506001600160a01b03851693506318e736d4925061197691508590879060040161462a565b600060405180830381600087803b15801561199057600080fd5b505af11580156119a4573d6000803e3d6000fd5b5050505050505050565b1c67ffffffffffffffff1690565b61082c8183146067611534565b60006060806119d66114cf565b156119f9576119e58887612768565b90506119f48882610fd2612855565b611a45565b611a01610fec565b67ffffffffffffffff81118015611a1757600080fd5b50604051908082528060200260200182016040528015611a41578160200160208202803683370190505b5090505b611a508886866128c0565b9093509150611a5f888361292c565b985098509895505050505050565b60005b611a78610fec565b81101561102857611aaf838281518110611a8e57fe5b6020026020010151838381518110611aa257fe5b6020026020010151611e5b565b838281518110611abb57fe5b6020908102919091010152600101611a70565b333014611bbd576000306001600160a01b0316600036604051611af2929190614500565b6000604051808303816000865af19150503d8060008114611b2f576040519150601f19603f3d011682016040523d82523d6000602084013e611b34565b606091505b505090508060008114611b4357fe5b60046000803e6000517fffffffff00000000000000000000000000000000000000000000000000000000167f43adbafb000000000000000000000000000000000000000000000000000000008114611b9f573d6000803e3d6000fd5b506020600460003e604060205260243d03602460403e601c3d016000f35b6060611bc761102d565b9050611bd38782611c5e565b60006060611beb8c8c8c8c8c8c898d8d63ffffffff16565b5091509150611bfe81848663ffffffff16565b8051601f1982018390526343adbafb7fffffffffffffffffffffffffffffffffffffffffffffffffffffffffffffffc08301526020027fffffffffffffffffffffffffffffffffffffffffffffffffffffffffffffffdc82016044820181fd5b60005b611c69610fec565b81101561102857611ca0838281518110611c7f57fe5b6020026020010151838381518110611c9357fe5b602002602001015161295b565b838281518110611cac57fe5b6020908102919091010152600101611c61565b81516000908190815b81811015611d0057611cf6868281518110611cdf57fe5b60200260200101518461188490919063ffffffff16565b9250600101611cc8565b5081611d1157600092505050610698565b600082878302825b60ff811015611e43576000858a600081518110611d3257fe5b60200260200101510290506000600190505b86811015611d8657611d7c611d75611d6f848e8581518110611d6257fe5b6020026020010151610f98565b89610f98565b868c612987565b9150600101611d44565b50839450611df9611dc8611daf611da6611da0878c610f98565b85610f98565b6103e88d612987565b611dc2611dbc8a89610f98565b88610f98565b90611884565b611df3611de6611ddc6103e8880386610f98565b6103e88e15612987565b611dc28a60010189610f98565b8b612987565b935084841115611e2157600185850311611e1c5783975050505050505050610698565b611e3a565b600184860311611e3a5783975050505050505050610698565b50600101611d19565b50611e4f61014261268a565b50505050509392505050565b6000611e6a8215156004611534565b82611e77575060006105c2565b670de0b6b3a764000083810290611e9a90858381611e9157fe5b04146005611534565b828181611ea357fe5b049150506105c2565b61082c82826129a7565b6000606080611ec3611804565b6060611ecf8988612768565b9050611ede8982610fd2612855565b60006060611eed8b8989612a63565b91509150611efb8b82612abc565b909d909c50909a5098505050505050505050565b60005b611f1a610fec565b81101561102857611f51838281518110611f3057fe5b6020026020010151838381518110611f4457fe5b6020026020010151612ac9565b838281518110611f5d57fe5b6020908102919091010152600101611f12565b60007f00000000000000000000000000000000000000000000000000000000000000006001600160a01b0316826001600160a01b03161415611fd357507f000000000000000000000000000000000000000000000000000000000000000061098b565b7f00000000000000000000000000000000000000000000000000000000000000006001600160a01b0316826001600160a01b0316141561203457507f000000000000000000000000000000000000000000000000000000000000000061098b565b7f00000000000000000000000000000000000000000000000000000000000000006001600160a01b0316826001600160a01b0316141561209557507f000000000000000000000000000000000000000000000000000000000000000061098b565b7f00000000000000000000000000000000000000000000000000000000000000006001600160a01b0316826001600160a01b031614156120f657507f000000000000000000000000000000000000000000000000000000000000000061098b565b7f00000000000000000000000000000000000000000000000000000000000000006001600160a01b0316826001600160a01b0316141561215757507f000000000000000000000000000000000000000000000000000000000000000061098b565b7f00000000000000000000000000000000000000000000000000000000000000006001600160a01b0316826001600160a01b031614156121b857507f000000000000000000000000000000000000000000000000000000000000000061098b565b7f00000000000000000000000000000000000000000000000000000000000000006001600160a01b0316826001600160a01b0316141561221957507f000000000000000000000000000000000000000000000000000000000000000061098b565b7f00000000000000000000000000000000000000000000000000000000000000006001600160a01b0316826001600160a01b0316141561227a57507f000000000000000000000000000000000000000000000000000000000000000061098b565b61098b61013561268a565b60008061229a612293610830565b8490612b17565b90506106988382610fd2565b6000610698838361295b565b60006122c96122bf610fec565b60021460d2611534565b60606000806122d9878787612b71565b9250925092506122eb87848484612570565b979650505050505050565b60006106988383611e5b565b600061230f6122bf610fec565b606060008061231f878787612b71565b9250925092506122eb87848484612546565b60006106988383612ac9565b60006105c261235c61234d610830565b670de0b6b3a764000090610fd2565b8390612ac9565b600061236d610aea565b6001600160a01b031663aaabadc56040518163ffffffff1660e01b815260040160206040518083038186803b1580156123a557600080fd5b505afa1580156123b9573d6000803e3d6000fd5b505050506040513d601f19601f8201168201806040525081019061079591906141a0565b60006123e7611767565b82604051602001610a83929190614510565b60006060612405611804565b600061241084612c5e565b905061242b600082600281111561242357fe5b1460ce611534565b606061243685612c74565b90506124458151610852610fec565b61244f8187611c5e565b6000612459611622565b509050600061246a82846001611cbf565b9050806124778184612c8a565b9b929a509198505050505050505050565b61082c8282612c95565b61249e818242426116c9565b7fa0d01593e47e69d07e0ccd87bece09411e07dd1ed40ca8f2e7af2976542a0233816040516114c491906145a2565b6002815110156124dc576105d9565b6000816000815181106124eb57fe5b602002602001015190506000600190505b825181101561102857600083828151811061251357fe5b6020026020010151905061253c816001600160a01b0316846001600160a01b0316106065611534565b91506001016124fc565b6000612550611804565b600061255a611622565b50905060006122eb828787878b60600151612d23565b600061257a611804565b6000612584611622565b50905060006122eb828787878b60600151612de7565b600073ba1ba1ba1ba1ba1ba1ba1ba1ba1ba1ba1ba1ba1b6125b9610ac6565b6001600160a01b0316141580156125d457506125d483612e8f565b156125fc576125e1610ac6565b6001600160a01b0316336001600160a01b03161490506105c2565b612604612363565b6001600160a01b0316639be2a8848484306040518463ffffffff1660e01b8152600401612633939291906145ab565b60206040518083038186803b15801561264b57600080fd5b505afa15801561265f573d6000803e3d6000fd5b505050506040513d601f19601f8201168201806040525081019061268391906140a1565b90506105c2565b7f08c379a0000000000000000000000000000000000000000000000000000000006000908152602060045260076024526642414c23000030600a808404818106603090810160081b95839006959095019082900491820690940160101b939093010160c81b604452606490fd5b60006127068484111583611534565b5050900390565b60008060008061272960006009546119ae90919063ffffffff16565b60095490945061273a9060406119ae565b60095490935061274b9060806119ae565b60095490925061275c9060c06119ae565b905090919293565b4690565b606080612773610fec565b67ffffffffffffffff8111801561278957600080fd5b506040519080825280602002602001820160405280156127b3578160200160208202803683370190505b509050826127c25790506105c2565b600080856000815181106127d257fe5b602002602001015190506000600190505b6127eb610fec565b81101561282257600087828151811061280057fe5b6020026020010151905082811115612819578193508092505b506001016127e3565b50612834600b5487600a548589612efd565b83838151811061284057fe5b60209081029190910101525090949350505050565b60005b612860610fec565b8110156128ba5761289b84828151811061287657fe5b602002602001015184838151811061288a57fe5b60200260200101518463ffffffff16565b8482815181106128a757fe5b6020908102919091010152600101612858565b50505050565b6000606060006128cf84612c5e565b905060008160028111156128df57fe5b14156128f9576128ef8685612f71565b9250925050612924565b600181600281111561290757fe5b1415612917576128ef868561303c565b6128ef86868661306e565b505b935093915050565b6129398282610fd2612855565b6000612943611622565b50905061102861295582856001611cbf565b82612c8a565b6000828202612975841580610fb5575083858381610fb257fe5b670de0b6b3a764000090049392505050565b60008161299d5761299884846130ea565b6104f4565b6104f48484611696565b6129be6001600160a01b038316151561019b611534565b6129ca82600083611028565b6001600160a01b0382166000908152602081905260409020546129f090826101a16126f7565b6001600160a01b038316600090815260208190526040902055600254612a16908261310a565b6002556040516000906001600160a01b038416907fddf252ad1be2c89b69c2b068fc378daa952ba7f163c4a11628f55a4df523b3ef90612a579085906145a2565b60405180910390a35050565b600060606000612a7284612c5e565b90506001816002811115612a8257fe5b1415612a93576128ef868686613118565b6002816002811115612aa157fe5b1415612ab1576128ef8685613182565b61292261013661268a565b6129398282611884612855565b6000612ad88215156004611534565b82612ae5575060006105c2565b670de0b6b3a764000083810290612aff90858381611e9157fe5b826001820381612b0b57fe5b046001019150506105c2565b6000828202612b31841580610fb5575083858381610fb257fe5b80612b405760009150506105c2565b670de0b6b3a76400007fffffffffffffffffffffffffffffffffffffffffffffffffffffffffffffffff8201612b0b565b6040805160028082526060828101909352600091829181602001602082028036833701905050925085602001516001600160a01b03167f00000000000000000000000000000000000000000000000000000000000000006001600160a01b03161415612c185760009150600190508483600081518110612bed57fe5b6020026020010181815250508383600181518110612c0757fe5b602002602001018181525050612c55565b60009050600191508383600081518110612c2e57fe5b6020026020010181815250508483600181518110612c4857fe5b6020026020010181815250505b93509350939050565b6000818060200190518101906105c2919061420a565b60608180602001905181019061069891906142d0565b600a91909155600b55565b612ca160008383611028565b600254612cae9082611884565b6002556001600160a01b038216600090815260208190526040902054612cd49082611884565b6001600160a01b0383166000818152602081905260408082209390935591519091907fddf252ad1be2c89b69c2b068fc378daa952ba7f163c4a11628f55a4df523b3ef90612a579085906145a2565b600080612d3287876001611cbf565b9050612d5a83878681518110612d4457fe5b6020026020010151610fd290919063ffffffff16565b868581518110612d6657fe5b6020026020010181815250506000612d8088888489613217565b905083878681518110612d8f57fe5b602002602001015101878681518110612da457fe5b602002602001018181525050612ddb6001611dc2898981518110612dc457fe5b602002602001015184610fd290919063ffffffff16565b98975050505050505050565b600080612df687876001611cbf565b9050612e1e83878781518110612e0857fe5b602002602001015161188490919063ffffffff16565b868681518110612e2a57fe5b6020026020010181815250506000612e4488888488613217565b905083878781518110612e5357fe5b602002602001015103878781518110612e6857fe5b602002602001018181525050612ddb6001612e89838a8981518110612d4457fe5b90610fd2565b6000612eba7f2f1a0bc900000000000000000000000000000000000000000000000000000000610a4e565b821480612eee5750612eeb7feb0f24d600000000000000000000000000000000000000000000000000000000610a4e565b82145b806105c257506105c2826133c7565b600080612f0c87878787613217565b905080868581518110612f1b57fe5b602002602001015111612f32576000915050611318565b600081878681518110612f4157fe5b6020026020010151039050612ddb670de0b6b3a7640000612f6b868461295b90919063ffffffff16565b90611e5b565b60006060612f7d611804565b600080612f898561342b565b91509150612fa1612f98610fec565b82106064611534565b6060612fab610fec565b67ffffffffffffffff81118015612fc157600080fd5b50604051908082528060200260200182016040528015612feb578160200160208202803683370190505b5090506000612ff8611622565b5090506130178189858761300a6105dc565b613012610830565b61344d565b82848151811061302357fe5b6020908102919091010152509196919550909350505050565b60006060600061304b84613569565b90506060613061868361305c6105dc565b61357f565b9196919550909350505050565b6000606061307a611804565b6060600061308785613631565b915091506130988251610852610fec565b6130a28287611c5e565b60006130ac611622565b50905060006130cc828a866130bf6105dc565b6130c7610830565b613649565b90506130dc8382111560cf611534565b989297509195505050505050565b60006130f98215156004611534565b81838161310257fe5b049392505050565b6000610698838360016126f7565b6000606080600061312885613631565b9150915061313e613137610fec565b83516119bc565b6131488287611c5e565b6000613152611622565b5090506000613172828a866131656105dc565b61316d610830565b6138df565b90506130dc8382101560d0611534565b600060606000806131928561342b565b915091506131a1612f98610fec565b60606131ab610fec565b67ffffffffffffffff811180156131c157600080fd5b506040519080825280602002602001820160405280156131eb578160200160208202803683370190505b50905060006131f8611622565b5090506130178189858761320a6105dc565b613212610830565b613b6e565b60008084518602905060008560008151811061322f57fe5b60200260200101519050600086518760008151811061324a57fe5b60200260200101510290506000600190505b87518110156132a35761328861328261327b848b8581518110611d6257fe5b8a51610f98565b886130ea565b9150613299888281518110611cdf57fe5b925060010161325c565b508685815181106132b057fe5b60200260200101518203915060006132c88788610f98565b905060006132f46132e86132e0846107378988610f98565b6103e8610f98565b8a8981518110611d6257fe5b9050600061330f6133086132e08b896130ea565b8690611884565b905060008061332b6133218686611884565b6107378d86611884565b905060005b60ff8110156133ab5781925061336061334d86611dc28586610f98565b6107378e612e8988611dc2886002610f98565b91508282111561338957600183830311613384575097506104f49650505050505050565b6133a3565b6001828403116133a3575097506104f49650505050505050565b600101613330565b506133b761014261268a565b5050505050505050949350505050565b60006133f27f38e9922e00000000000000000000000000000000000000000000000000000000610a4e565b8214806105c257506134237f50dd6ed900000000000000000000000000000000000000000000000000000000610a4e565b909114919050565b60008082806020019051810190613442919061429a565b909590945092505050565b60008061345c88886001611cbf565b9050600061347e8261347887613472818b610fd2565b90612ac9565b90612b17565b9050600061348e8a8a848b613217565b905060006134a2828b8b81518110612d4457fe5b90506000805b8b518110156134e1576134d78c82815181106134c057fe5b60200260200101518361188490919063ffffffff16565b91506001016134a8565b50600061350a828d8d815181106134f457fe5b6020026020010151611e5b90919063ffffffff16565b9050600061351782613c4b565b905060006135258583612b17565b905060006135338683610fd2565b905061355461354d83670de0b6b3a76400008e900361295b565b8290611884565b99505050505050505050509695505050505050565b600081806020019051810190610698919061426d565b6060600061358d8484611e5b565b90506060855167ffffffffffffffff811180156135a957600080fd5b506040519080825280602002602001820160405280156135d3578160200160208202803683370190505b50905060005b865181101561362757613608838883815181106135f257fe5b602002602001015161295b90919063ffffffff16565b82828151811061361457fe5b60209081029190910101526001016135d9565b5095945050505050565b60606000828060200190518101906134429190614226565b600080805b8651811015613670576136668782815181106134c057fe5b915060010161364e565b506060855167ffffffffffffffff8111801561368b57600080fd5b506040519080825280602002602001820160405280156136b5578160200160208202803683370190505b5090506000805b885181101561377c5760006136ed858b84815181106136d757fe5b6020026020010151612ac990919063ffffffff16565b90506137298a83815181106136fe57fe5b60200260200101516134728b858151811061371557fe5b60200260200101518d8681518110612d4457fe5b84838151811061373557fe5b60200260200101818152505061377161376a8286858151811061375457fe5b6020026020010151612b1790919063ffffffff16565b8490611884565b9250506001016136bc565b506060885167ffffffffffffffff8111801561379757600080fd5b506040519080825280602002602001820160405280156137c1578160200160208202803683370190505b50905060005b895181101561388c5760008482815181106137de57fe5b60200260200101518411156138455760006138076137fb86613c4b565b8d85815181106135f257fe5b9050600061381b828d8681518110612d4457fe5b905061383c61383582670de0b6b3a76400008d9003612ac9565b8390611884565b9250505061385c565b89828151811061385157fe5b602002602001015190505b61386c818c8481518110612d4457fe5b83838151811061387857fe5b6020908102919091010152506001016137c7565b50600061389b8b8b6001611cbf565b905060006138ab8c846000611cbf565b905060006138b98284611e5b565b90506138ce6138c782613c4b565b8b90612b17565b9d9c50505050505050505050505050565b600080805b8651811015613906576138fc8782815181106134c057fe5b91506001016138e4565b506060855167ffffffffffffffff8111801561392157600080fd5b5060405190808252806020026020018201604052801561394b578160200160208202803683370190505b5090506000805b88518110156139df57600061396d858b84815181106134f457fe5b90506139a98a838151811061397e57fe5b6020026020010151612f6b8b858151811061399557fe5b60200260200101518d8681518110612e0857fe5b8483815181106139b557fe5b6020026020010181815250506139d461376a828685815181106135f257fe5b925050600101613952565b506060885167ffffffffffffffff811180156139fa57600080fd5b50604051908082528060200260200182016040528015613a24578160200160208202803683370190505b50905060005b8951811015613ae557600083858381518110613a4257fe5b60200260200101511115613a9e576000613a676137fb86670de0b6b3a7640000610fd2565b90506000613a7b828d8681518110612d4457fe5b9050613a9561383582670de0b6b3a76400008d900361295b565b92505050613ab5565b898281518110613aaa57fe5b602002602001015190505b613ac5818c8481518110612e0857fe5b838381518110613ad157fe5b602090810291909101015250600101613a2a565b506000613af48b8b6001611cbf565b90506000613b048c846000611cbf565b90506000613b128284611e5b565b9050670de0b6b3a7640000811115613b5e57613b508a7ffffffffffffffffffffffffffffffffffffffffffffffffff21f494c589c0000830161295b565b975050505050505050611318565b6000975050505050505050611318565b600080613b7d88886001611cbf565b90506000613b938261347887613472818b611884565b90506000613ba38a8a848b613217565b90506000613bcd8a8a81518110613bb657fe5b602002602001015183610fd290919063ffffffff16565b90506000805b8b51811015613bf557613beb8c82815181106134c057fe5b9150600101613bd3565b506000613c08828d8d815181106134f457fe5b90506000613c1582613c4b565b90506000613c238583612b17565b90506000613c318683610fd2565b905061355461354d83670de0b6b3a76400008e9003612ac9565b6000670de0b6b3a76400008210613c635760006105c2565b50670de0b6b3a76400000390565b80356105c28161472a565b600082601f830112613c8c578081fd5b8135613c9f613c9a8261470a565b6146e3565b818152915060208083019084810181840286018201871015613cc057600080fd5b60005b84811015613cdf57813584529282019290820190600101613cc3565b505050505092915050565b600082601f830112613cfa578081fd5b8151613d08613c9a8261470a565b818152915060208083019084810181840286018201871015613d2957600080fd5b60005b84811015613cdf57815184529282019290820190600101613d2c565b600082601f830112613d58578081fd5b813567ffffffffffffffff811115613d6e578182fd5b613d816020601f19601f840116016146e3565b9150808252836020828501011115613d9857600080fd5b8060208401602084013760009082016020015292915050565b8035600281106105c257600080fd5b6000610120808385031215613dd3578182fd5b613ddc816146e3565b915050613de98383613db1565b8152613df88360208401613c71565b6020820152613e0a8360408401613c71565b6040820152606082013560608201526080820135608082015260a082013560a0820152613e3a8360c08401613c71565b60c0820152613e4c8360e08401613c71565b60e08201526101008083013567ffffffffffffffff811115613e6d57600080fd5b613e7985828601613d48565b82840152505092915050565b600060208284031215613e96578081fd5b81356106988161472a565b60008060408385031215613eb3578081fd5b8235613ebe8161472a565b91506020830135613ece8161472a565b809150509250929050565b600080600060608486031215613eed578081fd5b8335613ef88161472a565b92506020840135613f088161472a565b929592945050506040919091013590565b600080600080600080600060e0888a031215613f33578283fd5b8735613f3e8161472a565b96506020880135613f4e8161472a565b95506040880135945060608801359350608088013560ff81168114613f71578384fd5b9699959850939692959460a0840135945060c09093013592915050565b60008060408385031215613fa0578182fd5b8235613fab8161472a565b946020939093013593505050565b600080600060608486031215613fcd578081fd5b835167ffffffffffffffff80821115613fe4578283fd5b818601915086601f830112613ff7578283fd5b8151614005613c9a8261470a565b80828252602080830192508086018b828387028901011115614025578788fd5b8796505b8487101561405057805161403c8161472a565b845260019690960195928101928101614029565b508901519097509350505080821115614067578283fd5b5061407486828701613cea565b925050604084015190509250925092565b600060208284031215614096578081fd5b81356106988161473f565b6000602082840312156140b2578081fd5b81516106988161473f565b600080600080600080600060e0888a0312156140d7578081fd5b8735965060208801356140e98161472a565b955060408801356140f98161472a565b9450606088013567ffffffffffffffff80821115614115578283fd5b6141218b838c01613c7c565b955060808a0135945060a08a0135935060c08a0135915080821115614144578283fd5b506141518a828b01613d48565b91505092959891949750929550565b600060208284031215614171578081fd5b81357fffffffff0000000000000000000000000000000000000000000000000000000081168114610698578182fd5b6000602082840312156141b1578081fd5b81516106988161472a565b600080604083850312156141ce578182fd5b82356141d98161472a565b9150602083013567ffffffffffffffff8111156141f4578182fd5b61420085828601613d48565b9150509250929050565b60006020828403121561421b578081fd5b81516106988161474d565b60008060006060848603121561423a578081fd5b83516142458161474d565b602085015190935067ffffffffffffffff811115614261578182fd5b61407486828701613cea565b6000806040838503121561427f578182fd5b825161428a8161474d565b6020939093015192949293505050565b6000806000606084860312156142ae578081fd5b83516142b98161474d565b602085015160409095015190969495509392505050565b600080604083850312156142e2578182fd5b82516142ed8161474d565b602084015190925067ffffffffffffffff811115614309578182fd5b61420085828601613cea565b6000806000806080858703121561432a578182fd5b843567ffffffffffffffff80821115614341578384fd5b61434d88838901613dc0565b95506020870135915080821115614362578384fd5b5061436f87828801613c7c565b949794965050505060408301359260600135919050565b60008060006060848603121561439a578081fd5b833567ffffffffffffffff8111156143b0578182fd5b6143bc86828701613dc0565b9660208601359650604090950135949350505050565b6000602082840312156143e3578081fd5b5035919050565b600080604083850312156143fc578182fd5b50508035926020909101359150565b60008060008060808587031215614420578182fd5b84519350602085015192506040850151915060608501516144408161472a565b939692955090935050565b6000815180845260208085019450808401835b8381101561447a5781518752958201959082019060010161445e565b509495945050505050565b60008151808452815b818110156144aa5760208185018101518683018201520161448e565b818111156144bb5782602083870101525b50601f01601f19169290920160200192915050565b9182527fffffffff0000000000000000000000000000000000000000000000000000000016602082015260240190565b6000828483379101908152919050565b7f190100000000000000000000000000000000000000000000000000000000000081526002810192909252602282015260420190565b6001600160a01b0391909116815260200190565b60006040825261456d604083018561444b565b8281036020840152611318818561444b565b901515815260200190565b92151583526020830191909152604082015260600190565b90815260200190565b9283526001600160a01b03918216602084015216604082015260600190565b9586526001600160a01b0394851660208701529290931660408501526060840152608083019190915260a082015260c00190565b9485526020850193909352604084019190915260608301526001600160a01b0316608082015260a00190565b6000838252604060208301526104f46040830184614485565b9182526001600160a01b0316602082015260400190565b93845260ff9290921660208401526040830152606082015260800190565b6000602082526106986020830184614485565b6000838252604060208301526104f4604083018461444b565b9283529015156020830152604082015260600190565b93845260208401929092526040830152606082015260800190565b60ff91909116815260200190565b60405181810167ffffffffffffffff8111828210171561470257600080fd5b604052919050565b600067ffffffffffffffff821115614720578081fd5b5060209081020190565b6001600160a01b03811681146105d957600080fd5b80151581146105d957600080fd5b600381106105d957600080fdfea264697066735822122011b5b8a98a1de6be589f86585df9e6a372c636d3dd02b1d154c2c97dca2998a264736f6c63430007010033a2646970667358221220bba31dd270a7b24f35b557620e52df39163f1cfc2d7c6f43258dfe887c8ff3af64736f6c63430007010033",
  "devdoc": {
    "kind": "dev",
    "methods": {
      "create(address[],uint256,uint256,address)": {
        "details": "Deploys a new `StablePool`."
      },
      "getPauseConfiguration()": {
        "details": "Returns the current `TemporarilyPausable` configuration that will be applied to Pools created by this factory. `pauseWindowDuration` will decrease over time until it reaches zero, at which point both it and `bufferPeriodDuration` will be zero forever, meaning deployed Pools will not be pausable."
      },
      "getVault()": {
        "details": "Returns the Vault's address."
      },
      "isPoolFromFactory(address)": {
        "details": "Returns true if `pool` was created by this factory."
      }
    },
    "version": 1
  },
  "userdoc": {
    "kind": "user",
    "methods": {},
    "version": 1
  },
  "storageLayout": {
    "storage": [
      {
        "astId": 17974,
        "contract": "contracts/stable-pool-factory/StablePoolFactory.sol:StablePoolFactory",
        "label": "_isPoolFromFactory",
        "offset": 0,
        "slot": "0",
        "type": "t_mapping(t_address,t_bool)"
      }
    ],
    "types": {
      "t_address": {
        "encoding": "inplace",
        "label": "address",
        "numberOfBytes": "20"
      },
      "t_bool": {
        "encoding": "inplace",
        "label": "bool",
        "numberOfBytes": "1"
      },
      "t_mapping(t_address,t_bool)": {
        "encoding": "mapping",
        "key": "t_address",
        "label": "mapping(address => bool)",
        "numberOfBytes": "32",
        "value": "t_bool"
      }
    }
  }
}