{
  "address": "0xA15BAd804Aeda890b48c61afC5D763193286DF96",
  "abi": [
    {
      "inputs": [
        {
          "internalType": "contract IVault",
          "name": "vault",
          "type": "address"
        }
      ],
      "stateMutability": "nonpayable",
      "type": "constructor"
    },
    {
      "anonymous": false,
      "inputs": [
        {
          "indexed": true,
          "internalType": "address",
          "name": "pool",
          "type": "address"
        }
      ],
      "name": "PoolCreated",
      "type": "event"
    },
    {
      "inputs": [
        {
          "internalType": "contract IERC20[]",
          "name": "tokens",
          "type": "address[]"
        },
        {
          "internalType": "uint256[]",
          "name": "weights",
          "type": "uint256[]"
        },
        {
          "internalType": "uint256",
          "name": "swapFeePercentage",
          "type": "uint256"
        },
        {
          "internalType": "address",
          "name": "owner",
          "type": "address"
        }
      ],
      "name": "create",
      "outputs": [
        {
          "internalType": "address",
          "name": "",
          "type": "address"
        }
      ],
      "stateMutability": "nonpayable",
      "type": "function"
    },
    {
      "inputs": [],
      "name": "getCreationCode",
      "outputs": [
        {
          "internalType": "bytes",
          "name": "",
          "type": "bytes"
        }
      ],
      "stateMutability": "view",
      "type": "function"
    },
    {
      "inputs": [],
      "name": "getCreationCodeContracts",
      "outputs": [
        {
          "internalType": "address",
          "name": "contractA",
          "type": "address"
        },
        {
          "internalType": "address",
          "name": "contractB",
          "type": "address"
        }
      ],
      "stateMutability": "view",
      "type": "function"
    },
    {
      "inputs": [],
      "name": "getPauseConfiguration",
      "outputs": [
        {
          "internalType": "uint256",
          "name": "pauseWindowDuration",
          "type": "uint256"
        },
        {
          "internalType": "uint256",
          "name": "bufferPeriodDuration",
          "type": "uint256"
        }
      ],
      "stateMutability": "view",
      "type": "function"
    },
    {
      "inputs": [],
      "name": "getVault",
      "outputs": [
        {
          "internalType": "contract IVault",
          "name": "",
          "type": "address"
        }
      ],
      "stateMutability": "view",
      "type": "function"
    },
    {
      "inputs": [
        {
          "internalType": "address",
          "name": "pool",
          "type": "address"
        }
      ],
      "name": "isPoolFromFactory",
      "outputs": [
        {
          "internalType": "bool",
          "name": "",
          "type": "bool"
        }
      ],
      "stateMutability": "view",
      "type": "function"
    }
  ],
  "transactionHash": "0xe1a3f7caba10c600fdc25083070e55e6293ce6df983bc03ba79c95ae5ff1eb4f",
  "args": [
    "0xbF7bbBbFb97721B143F7c584E2285607DF517e57"
  ],
  "solcInputHash": "06a4917e6006009f934cbcfc26ea752b",
  "bytecode": "0x6101406040523480156200001257600080fd5b5060405162006a9238038062006a928339810160408190526200003591620001c3565b80604051806020016200004890620001b5565b601f1982820381018352601f909101166040528051819060006002820460a081905280830360e0819052818552909150836200009081620000f9602090811b6200027d17901c565b60601b6001600160601b0319166080528285018051838252620000bf82620000f9602090811b6200027d17901c565b6001600160601b0319606091821b811660c0529690935290529590951b90911661010052505050426276a700016101205250620001f39050565b80517f602038038060206000396000f3fefefefefefefefefefefefefefefefefefefe808352600091602081018484f09084529150620001476001600160a01b03831615156101ac6200014d565b50919050565b816200015e576200015e8162000162565b5050565b62461bcd60e51b6000908152602060045260076024526642414c23000030600a808404818106603090810160081b95839006959095019082900491820690940160101b939093010160c81b604452606490fd5b615e558062000c3d83390190565b600060208284031215620001d5578081fd5b81516001600160a01b0381168114620001ec578182fd5b9392505050565b60805160601c60a05160c05160601c60e0516101005160601c610120516109e862000255600039806101ca52806101f352508061025b5250806102e452508061014a5280610360525080610305525080610129528061033c52506109e86000f3fe608060405234801561001057600080fd5b50600436106100715760003560e01c80632da47c40116100505780632da47c40146100ca5780636634b753146100e05780638d928af81461010057610071565b8062c194db14610076578063174481fa1461009457806328609dbf146100aa575b600080fd5b61007e610108565b60405161008b91906107e6565b60405180910390f35b61009c610127565b60405161008b9291906107b4565b6100bd6100b836600461061c565b61016d565b60405161008b9190610793565b6100d26101c4565b60405161008b929190610938565b6100f36100ee366004610600565b61022e565b60405161008b91906107db565b6100bd610259565b6060610122604051806020016040528060008152506102dc565b905090565b7f00000000000000000000000000000000000000000000000000000000000000007f00000000000000000000000000000000000000000000000000000000000000009091565b600080600061017a6101c4565b915091506101b9610189610259565b88888886868a6040516020016101a59796959493929190610857565b6040516020818303038152906040526103b5565b979650505050505050565b600080427f000000000000000000000000000000000000000000000000000000000000000081101561022057807f000000000000000000000000000000000000000000000000000000000000000003925062278d009150610229565b60009250600091505b509091565b73ffffffffffffffffffffffffffffffffffffffff1660009081526020819052604090205460ff1690565b7f000000000000000000000000000000000000000000000000000000000000000090565b80517f602038038060206000396000f3fefefefefefefefefefefefefefefefefefefe808352600091602081018484f090845291506102d673ffffffffffffffffffffffffffffffffffffffff831615156101ac610440565b50919050565b8051604080517f00000000000000000000000000000000000000000000000000000000000000007f0000000000000000000000000000000000000000000000000000000000000000818101858101848101602090810190965280855293957f00000000000000000000000000000000000000000000000000000000000000009592947f000000000000000000000000000000000000000000000000000000000000000094938801866000828a3c846000888301883c50602089810190898501016103a7818386610452565b505050505050505050919050565b6000806103c1836104cc565b73ffffffffffffffffffffffffffffffffffffffff811660008181526020819052604080822080547fffffffffffffffffffffffffffffffffffffffffffffffffffffffffffffff001660011790555192935090917f83a48fbcfc991335314e74d0496aab6a1987e992ddc85dddbcc4d6dd6ef2e9fc9190a292915050565b8161044e5761044e81610514565b5050565b5b602081106104905781518352602092830192909101907fffffffffffffffffffffffffffffffffffffffffffffffffffffffffffffffe001610453565b905182516020929092036101000a7fffffffffffffffffffffffffffffffffffffffffffffffffffffffffffffffff0180199091169116179052565b600060606104d9836102dc565b905060008151602083016000f0905073ffffffffffffffffffffffffffffffffffffffff811661050d573d6000803e3d6000fd5b9392505050565b7f08c379a0000000000000000000000000000000000000000000000000000000006000908152602060045260076024526642414c23000030600a808404818106603090810160081b95839006959095019082900491820690940160101b939093010160c81b604452606490fd5b803561058c8161098d565b92915050565b600082601f8301126105a2578081fd5b81356105b56105b08261096d565b610946565b8181529150602080830190848101818402860182018710156105d657600080fd5b60005b848110156105f5578135845292820192908201906001016105d9565b505050505092915050565b600060208284031215610611578081fd5b813561050d8161098d565b60008060008060808587031215610631578283fd5b843567ffffffffffffffff80821115610648578485fd5b818701915087601f83011261065b578485fd5b81356106696105b08261096d565b80828252602080830192508086018c82838702890101111561068957898afd5b8996505b848710156106b45780356106a08161098d565b84526001969096019592810192810161068d565b5090985089013593505050808211156106cb578485fd5b506106d887828801610592565b935050604085013591506106ef8660608701610581565b905092959194509250565b73ffffffffffffffffffffffffffffffffffffffff169052565b6000815180845260208085019450808401835b8381101561075957815173ffffffffffffffffffffffffffffffffffffffff1687529582019590820190600101610727565b509495945050505050565b6000815180845260208085019450808401835b8381101561075957815187529582019590820190600101610777565b73ffffffffffffffffffffffffffffffffffffffff91909116815260200190565b73ffffffffffffffffffffffffffffffffffffffff92831681529116602082015260400190565b901515815260200190565b6000602080835283518082850152825b81811015610812578581018301518582016040015282016107f6565b818111156108235783604083870101525b50601f017fffffffffffffffffffffffffffffffffffffffffffffffffffffffffffffffe016929092016040019392505050565b600061012073ffffffffffffffffffffffffffffffffffffffff8a168352806020840152601781840152507f4e696c65526976657220576569676874656420506f6f6c000000000000000000610140830152610160806040840152600781840152507f4e494c452d4c50000000000000000000000000000000000000000000000000006101808301526101a08060608401526108f58184018a610714565b905082810360808401526109098189610764565b9150508560a08301528460c08301528360e083015261092c6101008301846106fa565b98975050505050505050565b918252602082015260400190565b60405181810167ffffffffffffffff8111828210171561096557600080fd5b604052919050565b600067ffffffffffffffff821115610983578081fd5b5060209081020190565b73ffffffffffffffffffffffffffffffffffffffff811681146109af57600080fd5b5056fea2646970667358221220d5197bb2f8572dcec365064b2898550fe5c0e0a50c4dfe557a3715f150fd623b64736f6c634300070100336105006040527f6e71edae12b1b97f4d1f60370fef10105fa2faae0126114a169c64845d6126c9610120523480156200003757600080fd5b5060405162005e5538038062005e558339810160408190526200005a9162000d36565b88888888878787878785516002146200007557600162000078565b60025b6040805180820190915260018152603160f81b602080830191909152336080526001600160601b0319606086901b1660a0528a518b928b928b928b928b928b928b92859285928b928b92849283929183918691620000dc9160039185019062000aff565b508051620000f290600490602084019062000aff565b50506005805460ff1916601217905550815160209283012060c052805191012060e05250507f8b73c3c69bb8fe3d512ecc4cf759cc79239f7b179b0ffacaa9a75d522b39400f6101005250620001516276a7008311156101946200086d565b6200016562278d008211156101956200086d565b429091016101408190520161016052845162000187906002111560c86200086d565b6200019f60088651111560c96200086d60201b60201c565b620001b5856200088260201b62000dec1760201c565b620001c0846200088e565b6040516309b2760f60e01b81526000906001600160a01b038b16906309b2760f90620001f1908c9060040162000eef565b602060405180830381600087803b1580156200020c57600080fd5b505af115801562000221573d6000803e3d6000fd5b505050506040513d601f19601f8201168201806040525081019062000247919062000d1d565b9050896001600160a01b03166366a9c7d2828889516001600160401b03811180156200027257600080fd5b506040519080825280602002602001820160405280156200029d578160200160208202803683370190505b506040518463ffffffff1660e01b8152600401620002be9392919062000e53565b600060405180830381600087803b158015620002d957600080fd5b505af1158015620002ee573d6000803e3d6000fd5b505087516001600160601b031960608e901b16610180526101a08490526101c0819052915050806200032257600062000339565b866000815181106200033057fe5b60200260200101515b60601b6001600160601b0319166101e052600181116200035b57600062000372565b866001815181106200036957fe5b60200260200101515b60601b6001600160601b031916610200526002811162000394576000620003ab565b86600281518110620003a257fe5b60200260200101515b60601b6001600160601b0319166102205260038111620003cd576000620003e4565b86600381518110620003db57fe5b60200260200101515b60601b6001600160601b0319166102405260048111620004065760006200041d565b866004815181106200041457fe5b60200260200101515b60601b6001600160601b03191661026052600581116200043f57600062000456565b866005815181106200044d57fe5b60200260200101515b60601b6001600160601b0319166102805260068111620004785760006200048f565b866006815181106200048657fe5b60200260200101515b60601b6001600160601b0319166102a05260078111620004b1576000620004c8565b86600781518110620004bf57fe5b60200260200101515b60601b6001600160601b0319166102c05280620004e75760006200050d565b6200050d87600081518110620004f957fe5b60200260200101516200091a60201b60201c565b6102e052600181116200052257600062000534565b6200053487600181518110620004f957fe5b6103005260028111620005495760006200055b565b6200055b87600281518110620004f957fe5b61032052600381116200057057600062000582565b6200058287600381518110620004f957fe5b610340526004811162000597576000620005a9565b620005a987600481518110620004f957fe5b6103605260058111620005be576000620005d0565b620005d087600581518110620004f957fe5b6103805260068111620005e5576000620005f7565b620005f787600681518110620004f957fe5b6103a052600781116200060c5760006200061e565b6200061e87600781518110620004f957fe5b6103c081815250505050505050505050505050505050505050505060008651905062000657818751620009c660201b62000df61760201c565b6000806000805b848160ff161015620006dd5760008a8260ff16815181106200067c57fe5b60200260200101519050620006a4662386f26fc1000082101561012e6200086d60201b60201c565b620006be8186620009d560201b62000e031790919060201c565b945082811115620006d3578160ff1693508092505b506001016200065e565b50620006f6670de0b6b3a764000084146101346200086d565b6103e0829052836200070a57600062000721565b886000815181106200071857fe5b60200260200101515b6104005260018411620007365760006200074d565b886001815181106200074457fe5b60200260200101515b61042052600284116200076257600062000779565b886002815181106200077057fe5b60200260200101515b61044052600384116200078e576000620007a5565b886003815181106200079c57fe5b60200260200101515b6104605260048411620007ba576000620007d1565b88600481518110620007c857fe5b60200260200101515b6104805260058411620007e6576000620007fd565b88600581518110620007f457fe5b60200260200101515b6104a052600684116200081257600062000829565b886006815181106200082057fe5b60200260200101515b6104c052600784116200083e57600062000855565b886007815181106200084c57fe5b60200260200101515b6104e0525062000f769b505050505050505050505050565b816200087e576200087e81620009f2565b5050565b806200087e8162000a45565b620008a364e8d4a5100082101560cb6200086d565b620008bb67016345785d8a000082111560ca6200086d565b620008da8160c060085462000ad260201b62000e15179092919060201c565b6008556040517fa9ba3ffe0b6c366b81232caab38605a0699ad5398d6cce76f91ee809e322dafc906200090f90839062000f04565b60405180910390a150565b600080826001600160a01b031663313ce5676040518163ffffffff1660e01b815260040160206040518083038186803b1580156200095757600080fd5b505afa1580156200096c573d6000803e3d6000fd5b505050506040513d601f19601f8201168201806040525081019062000992919062000e30565b60ff1690506000620009b160128362000ae760201b62000e2b1760201c565b600a0a670de0b6b3a764000002949350505050565b6200087e82821460676200086d565b6000828201620009e984821015836200086d565b90505b92915050565b62461bcd60e51b6000908152602060045260076024526642414c23000030600a808404818106603090810160081b95839006959095019082900491820690940160101b939093010160c81b604452606490fd5b60028151101562000a565762000acf565b60008160008151811062000a6657fe5b602002602001015190506000600190505b825181101562000acc57600083828151811062000a9057fe5b6020026020010151905062000ac1816001600160a01b0316846001600160a01b03161060656200086d60201b60201c565b915060010162000a77565b50505b50565b6001600160401b03811b1992909216911b1790565b600062000af98383111560016200086d565b50900390565b828054600181600116156101000203166002900490600052602060002090601f016020900481019282601f1062000b4257805160ff191683800117855562000b72565b8280016001018555821562000b72579182015b8281111562000b7257825182559160200191906001019062000b55565b5062000b8092915062000b84565b5090565b5b8082111562000b80576000815560010162000b85565b8051620009ec8162000f60565b600082601f83011262000bb9578081fd5b815162000bd062000bca8262000f34565b62000f0d565b81815291506020808301908481018184028601820187101562000bf257600080fd5b60005b8481101562000c1e57815162000c0b8162000f60565b8452928201929082019060010162000bf5565b505050505092915050565b600082601f83011262000c3a578081fd5b815162000c4b62000bca8262000f34565b81815291506020808301908481018184028601820187101562000c6d57600080fd5b60005b8481101562000c1e5781518452928201929082019060010162000c70565b600082601f83011262000c9f578081fd5b81516001600160401b0381111562000cb5578182fd5b602062000ccb601f8301601f1916820162000f0d565b9250818352848183860101111562000ce257600080fd5b60005b8281101562000d0257848101820151848201830152810162000ce5565b8281111562000d145760008284860101525b50505092915050565b60006020828403121562000d2f578081fd5b5051919050565b60008060008060008060008060006101208a8c03121562000d55578485fd5b62000d618b8b62000b9b565b60208b01519099506001600160401b038082111562000d7e578687fd5b62000d8c8d838e0162000c8e565b995060408c015191508082111562000da2578687fd5b62000db08d838e0162000c8e565b985060608c015191508082111562000dc6578687fd5b62000dd48d838e0162000ba8565b975060808c015191508082111562000dea578687fd5b5062000df98c828d0162000c29565b95505060a08a0151935060c08a0151925060e08a0151915062000e218b6101008c0162000b9b565b90509295985092959850929598565b60006020828403121562000e42578081fd5b815160ff81168114620009e9578182fd5b60006060820185835260206060818501528186518084526080860191508288019350845b8181101562000e9f5762000e8c855162000f54565b8352938301939183019160010162000e77565b505084810360408601528551808252908201925081860190845b8181101562000ee15762000ece835162000f54565b8552938301939183019160010162000eb9565b509298975050505050505050565b602081016003831062000efe57fe5b91905290565b90815260200190565b6040518181016001600160401b038111828210171562000f2c57600080fd5b604052919050565b60006001600160401b0382111562000f4a578081fd5b5060209081020190565b6001600160a01b031690565b6001600160a01b038116811462000acf57600080fd5b60805160a05160601c60c05160e051610100516101205161014051610160516101805160601c6101a0516101c0516101e05160601c6102005160601c6102205160601c6102405160601c6102605160601c6102805160601c6102a05160601c6102c05160601c6102e05161030051610320516103405161036051610380516103a0516103c0516103e05161040051610420516104405161046051610480516104a0516104c0516104e051614cd3620011826000398061224f5280612aef52508061220c5280612a8e5250806121c95280612a2d52508061218652806129cc525080612143528061296b525080612100528061290a5250806120bd52806128a952508061207a5280612848525080611ec65250806118bf5280611d3552508061187c5280611cd45250806118395280611c735250806117f65280611c125250806117b35280611bb15250806117705280611b5052508061172d5280611aef5250806116dc5280611a8e525080611cfa5280612ab4525080611c995280612a53525080611c3852806129f2525080611bd75280612991525080611b765280612930525080611b1552806128cf525080611ab4528061286e525080611a53528061280d5250806113235250806106385250806108a1525080610fce525080610faa525080610b7e5250806110e252508061112452508061110352508061087d5250806108075250614cd36000f3fe608060405234801561001057600080fd5b506004361061020b5760003560e01c806374f3b0091161012a5780639d2c110c116100bd578063c0ff1a151161008c578063d5c096c411610071578063d5c096c414610427578063dd62ed3e1461043a578063f89f27ed1461044d5761020b565b8063c0ff1a151461040c578063d505accf146104145761020b565b80639d2c110c146103cb578063a457c2d7146103de578063a9059cbb146103f1578063aaabadc5146104045761020b565b8063893d20e8116100f9578063893d20e81461039e5780638d928af8146103b357806395d89b41146103bb5780639b02cdde146103c35761020b565b806374f3b009146103445780637ecebe0014610365578063851c1bb31461037857806387ec68171461038b5761020b565b806338e9922e116101a257806355c676281161017157806355c67628146103005780636028bfd414610308578063679aefce1461032957806370a08231146103315761020b565b806338e9922e146102bf57806338fff2d0146102d257806339509351146102da57806350dd6ed9146102ed5761020b565b80631c0de051116101de5780631c0de0511461027857806323b872dd1461028f578063313ce567146102a25780633644e515146102b75761020b565b806306fdde0314610210578063095ea7b31461022e57806316c38b3c1461024e57806318160ddd14610263575b600080fd5b610218610462565b6040516102259190614bec565b60405180910390f35b61024161023c366004614477565b610517565b6040516102259190614af3565b61026161025c36600461456e565b61052e565b005b61026b610542565b6040516102259190614b16565b610280610548565b60405161022593929190614afe565b61024161029d3660046143c2565b610571565b6102aa610605565b6040516102259190614c18565b61026b61060e565b6102616102cd366004614954565b61061d565b61026b610636565b6102416102e8366004614477565b61065a565b6102616102fb3660046146ff565b610695565b61026b6106b3565b61031b6103163660046145a6565b6106c4565b604051610225929190614bff565b61026b6106fb565b61026b61033f36600461436e565b610726565b6103576103523660046145a6565b610745565b604051610225929190614ace565b61026b61037336600461436e565b6107e8565b61026b6103863660046146a3565b610803565b61031b6103993660046145a6565b610855565b6103a661087b565b6040516102259190614aa7565b6103a661089f565b6102186108c3565b61026b610942565b61026b6103d9366004614858565b610948565b6102416103ec366004614477565b610a2f565b6102416103ff366004614477565b610a6d565b6103a6610a7a565b61026b610a84565b610261610422366004614402565b610b49565b6103576104353660046145a6565b610c92565b61026b61044836600461438a565b610db7565b610455610de2565b6040516102259190614abb565b60038054604080516020601f60027fffffffffffffffffffffffffffffffffffffffffffffffffffffffffffffffff61010060018816150201909516949094049384018190048102820181019092528281526060939092909183018282801561050c5780601f106104e15761010080835404028352916020019161050c565b820191906000526020600020905b8154815290600101906020018083116104ef57829003601f168201915b505050505090505b90565b6000610524338484610e41565b5060015b92915050565b610536610ea9565b61053f81610eef565b50565b60025490565b6000806000610555610f8b565b159250610560610fa8565b915061056a610fcc565b9050909192565b60008061057e8533610db7565b90506105a2336001600160a01b038716148061059a5750838210155b61019e610ff0565b6105ad858585610ffe565b336001600160a01b038616148015906105e657507fffffffffffffffffffffffffffffffffffffffffffffffffffffffffffffffff8114155b156105f8576105f88533858403610e41565b60019150505b9392505050565b60055460ff1690565b60006106186110de565b905090565b610625610ea9565b61062d61117b565b61053f81611190565b7f000000000000000000000000000000000000000000000000000000000000000090565b3360008181526001602090815260408083206001600160a01b038716845290915281205490916105249185906106909086610e03565b610e41565b61069d610ea9565b6106a561117b565b6106af82826111fb565b5050565b6008546000906106189060c0611313565b600060606106da86516106d5611321565b610df6565b6106ef8989898989898961134561141561147b565b97509795505050505050565b6000610618610708610542565b610720610713610a84565b61071b611321565b61160b565b9061162f565b6001600160a01b0381166000908152602081905260409020545b919050565b6060808861076f61075461089f565b6001600160a01b0316336001600160a01b03161460cd610ff0565b61078461077a610636565b82146101f4610ff0565b606061078e611680565b905061079a88826118fd565b60006060806107af8e8e8e8e8e8e8a8f611345565b9250925092506107bf8d8461195e565b6107c98285611415565b6107d38185611415565b909550935050505b5097509795505050505050565b6001600160a01b031660009081526006602052604090205490565b60007f000000000000000000000000000000000000000000000000000000000000000082604051602001610838929190614a31565b604051602081830303815290604052805190602001209050919050565b6000606061086686516106d5611321565b6106ef898989898989896119686119ee61147b565b7f000000000000000000000000000000000000000000000000000000000000000090565b7f000000000000000000000000000000000000000000000000000000000000000090565b60048054604080516020601f60027fffffffffffffffffffffffffffffffffffffffffffffffffffffffffffffffff61010060018816150201909516949094049384018190048102820181019092528281526060939092909183018282801561050c5780601f106104e15761010080835404028352916020019161050c565b60095490565b6000806109588560200151611a4f565b905060006109698660400151611a4f565b905060008651600181111561097a57fe5b14156109e05761098d8660600151611d64565b606087015261099c8583611d85565b94506109a88482611d85565b93506109b8866060015183611d85565b606087015260006109ca878787611d91565b90506109d68183611dcc565b93505050506105fe565b6109ea8583611d85565b94506109f68482611d85565b9350610a06866060015182611d85565b60608701526000610a18878787611dd8565b9050610a248184611e0b565b90506109d681611e17565b600080610a3c3385610db7565b9050808310610a5657610a5133856000610e41565b610a63565b610a633385858403610e41565b5060019392505050565b6000610524338484610ffe565b6000610618611e3d565b60006060610a9061089f565b6001600160a01b031663f94d4668610aa6610636565b6040518263ffffffff1660e01b8152600401610ac29190614b16565b60006040518083038186803b158015610ada57600080fd5b505afa158015610aee573d6000803e3d6000fd5b505050506040513d6000823e601f3d908101601f19168201604052610b1691908101906144a2565b50915050610b2b81610b26611680565b6118fd565b6060610b35611eb7565b509050610b428183611eeb565b9250505090565b610b578442111560d1610ff0565b6001600160a01b0387166000908152600660209081526040808320549051909291610bae917f0000000000000000000000000000000000000000000000000000000000000000918c918c918c9188918d9101614b3e565b6040516020818303038152906040528051906020012090506000610bd182611f5d565b9050600060018288888860405160008152602001604052604051610bf89493929190614bce565b6020604051602081039080840390855afa158015610c1a573d6000803e3d6000fd5b5050604051601f1901519150610c5c90506001600160a01b03821615801590610c5457508b6001600160a01b0316826001600160a01b0316145b6101f8610ff0565b6001600160a01b038b166000908152600660205260409020600185019055610c858b8b8b610e41565b5050505050505050505050565b60608088610ca161075461089f565b610cac61077a610636565b6060610cb6611680565b9050610cc0610542565b610d675760006060610cd58d8d8d868b611f79565b91509150610cea620f424083101560cc610ff0565b610cf86000620f4240612014565b610d078b620f42408403612014565b610d1181846119ee565b80610d1a611321565b67ffffffffffffffff81118015610d3057600080fd5b50604051908082528060200260200182016040528015610d5a578160200160208202803683370190505b50955095505050506107db565b610d7188826118fd565b6000606080610d868e8e8e8e8e8e8a8f611968565b925092509250610d968c84612014565b610da082856119ee565b610daa8185611415565b90955093506107db915050565b6001600160a01b03918216600090815260016020908152604080832093909416825291909152205490565b606061061861201e565b806106af8161227b565b6106af8183146067610ff0565b60008282016105fe8482101583610ff0565b67ffffffffffffffff811b1992909216911b1790565b6000610e3b838311156001610ff0565b50900390565b6001600160a01b0380841660008181526001602090815260408083209487168084529490915290819020849055517f8c5be1e5ebec7d5bd14f71427d1e84f3dd0314c0f7b2291e5b200ac8c7c3b92590610e9c908590614b16565b60405180910390a3505050565b6000610ed86000357fffffffff0000000000000000000000000000000000000000000000000000000016610803565b905061053f610ee782336122f4565b610191610ff0565b8015610f0f57610f0a610f00610fa8565b4210610193610ff0565b610f24565b610f24610f1a610fcc565b42106101a9610ff0565b600780547fffffffffffffffffffffffffffffffffffffffffffffffffffffffffffffff00168215151790556040517f9e3a5e37224532dea67b89face185703738a228a6e8a23dee546960180d3be6490610f80908390614af3565b60405180910390a150565b6000610f95610fcc565b42118061061857505060075460ff161590565b7f000000000000000000000000000000000000000000000000000000000000000090565b7f000000000000000000000000000000000000000000000000000000000000000090565b816106af576106af816123e4565b6110156001600160a01b0384161515610198610ff0565b61102c6001600160a01b0383161515610199610ff0565b611037838383611476565b6001600160a01b03831660009081526020819052604090205461105d90826101a0612451565b6001600160a01b03808516600090815260208190526040808220939093559084168152205461108c9082610e03565b6001600160a01b0380841660008181526020819052604090819020939093559151908516907fddf252ad1be2c89b69c2b068fc378daa952ba7f163c4a11628f55a4df523b3ef90610e9c908590614b16565b60007f00000000000000000000000000000000000000000000000000000000000000007f00000000000000000000000000000000000000000000000000000000000000007f000000000000000000000000000000000000000000000000000000000000000061114b612467565b30604051602001611160959493929190614b72565b60405160208183030381529060405280519060200120905090565b61118e611186610f8b565b610192610ff0565b565b6111a364e8d4a5100082101560cb610ff0565b6111b967016345785d8a000082111560ca610ff0565b6008546111c8908260c0610e15565b6008556040517fa9ba3ffe0b6c366b81232caab38605a0699ad5398d6cce76f91ee809e322dafc90610f80908390614b16565b6000611205610636565b9050600061121161089f565b6001600160a01b031663b05f8e4883866040518363ffffffff1660e01b815260040161123e929190614bb7565b60806040518083038186803b15801561125657600080fd5b505afa15801561126a573d6000803e3d6000fd5b505050506040513d601f19601f8201168201806040525081019061128e919061496c565b6040517f18e736d40000000000000000000000000000000000000000000000000000000081529094506001600160a01b03851693506318e736d492506112db915085908790600401614b9e565b600060405180830381600087803b1580156112f557600080fd5b505af1158015611309573d6000803e3d6000fd5b5050505050505050565b1c67ffffffffffffffff1690565b7f000000000000000000000000000000000000000000000000000000000000000090565b600060608060606000611356611eb7565b91509150611362610f8b565b1561139a576000611373838c611eeb565b90506113858b8484600954858e61246b565b93506113948b85610e2b61251c565b506113e6565b6113a2611321565b67ffffffffffffffff811180156113b857600080fd5b506040519080825280602002602001820160405280156113e2578160200160208202803683370190505b5092505b6113f28a838989612587565b90955093506114028a85846125f6565b6009555050985098509895505050505050565b60005b611420611321565b8110156114765761145783828151811061143657fe5b602002602001015183838151811061144a57fe5b602002602001015161162f565b83828151811061146357fe5b6020908102919091010152600101611418565b505050565b33301461156a576000306001600160a01b031660003660405161149f929190614a61565b6000604051808303816000865af19150503d80600081146114dc576040519150601f19603f3d011682016040523d82523d6000602084013e6114e1565b606091505b5050905080600081146114f057fe5b60046000803e6000517fffffffff00000000000000000000000000000000000000000000000000000000167f43adbafb00000000000000000000000000000000000000000000000000000000811461154c573d6000803e3d6000fd5b506020600460003e604060205260243d03602460403e601c3d016000f35b6060611574611680565b905061158087826118fd565b600060606115988c8c8c8c8c8c898d8d63ffffffff16565b50915091506115ab81848663ffffffff16565b8051601f1982018390526343adbafb7fffffffffffffffffffffffffffffffffffffffffffffffffffffffffffffffc08301526020027fffffffffffffffffffffffffffffffffffffffffffffffffffffffffffffffdc82016044820181fd5b60008282026105fe84158061162857508385838161162557fe5b04145b6003610ff0565b600061163e8215156004610ff0565b8261164b57506000610528565b670de0b6b3a76400008381029061166e9085838161166557fe5b04146005610ff0565b82818161167757fe5b04915050610528565b6060600061168c611321565b905060608167ffffffffffffffff811180156116a757600080fd5b506040519080825280602002602001820160405280156116d1578160200160208202803683370190505b5090508115611719577f00000000000000000000000000000000000000000000000000000000000000008160008151811061170857fe5b602002602001018181525050611722565b91506105149050565b6001821115611719577f00000000000000000000000000000000000000000000000000000000000000008160018151811061175957fe5b6020026020010181815250506002821115611719577f00000000000000000000000000000000000000000000000000000000000000008160028151811061179c57fe5b6020026020010181815250506003821115611719577f0000000000000000000000000000000000000000000000000000000000000000816003815181106117df57fe5b6020026020010181815250506004821115611719577f00000000000000000000000000000000000000000000000000000000000000008160048151811061182257fe5b6020026020010181815250506005821115611719577f00000000000000000000000000000000000000000000000000000000000000008160058151811061186557fe5b6020026020010181815250506006821115611719577f0000000000000000000000000000000000000000000000000000000000000000816006815181106118a857fe5b6020026020010181815250506007821115611719577f0000000000000000000000000000000000000000000000000000000000000000816007815181106118eb57fe5b60200260200101818152505091505090565b60005b611908611321565b8110156114765761193f83828151811061191e57fe5b602002602001015183838151811061193257fe5b602002602001015161260f565b83828151811061194b57fe5b6020908102919091010152600101611900565b6106af828261263b565b600060608061197561117b565b60606000611981611eb7565b915091506000611991838c611eeb565b905060606119a58c8585600954868f61246b565b90506119b48c82610e2b61251c565b600060606119c48e878d8d6126f7565b915091506119d38e8288612752565b60095590975095509350505050985098509895505050505050565b60005b6119f9611321565b81101561147657611a30838281518110611a0f57fe5b6020026020010151838381518110611a2357fe5b6020026020010151612761565b838281518110611a3c57fe5b60209081029190910101526001016119f1565b60007f00000000000000000000000000000000000000000000000000000000000000006001600160a01b0316826001600160a01b03161415611ab257507f0000000000000000000000000000000000000000000000000000000000000000610740565b7f00000000000000000000000000000000000000000000000000000000000000006001600160a01b0316826001600160a01b03161415611b1357507f0000000000000000000000000000000000000000000000000000000000000000610740565b7f00000000000000000000000000000000000000000000000000000000000000006001600160a01b0316826001600160a01b03161415611b7457507f0000000000000000000000000000000000000000000000000000000000000000610740565b7f00000000000000000000000000000000000000000000000000000000000000006001600160a01b0316826001600160a01b03161415611bd557507f0000000000000000000000000000000000000000000000000000000000000000610740565b7f00000000000000000000000000000000000000000000000000000000000000006001600160a01b0316826001600160a01b03161415611c3657507f0000000000000000000000000000000000000000000000000000000000000000610740565b7f00000000000000000000000000000000000000000000000000000000000000006001600160a01b0316826001600160a01b03161415611c9757507f0000000000000000000000000000000000000000000000000000000000000000610740565b7f00000000000000000000000000000000000000000000000000000000000000006001600160a01b0316826001600160a01b03161415611cf857507f0000000000000000000000000000000000000000000000000000000000000000610740565b7f00000000000000000000000000000000000000000000000000000000000000006001600160a01b0316826001600160a01b03161415611d5957507f0000000000000000000000000000000000000000000000000000000000000000610740565b6107406101356123e4565b600080611d79611d726106b3565b84906127af565b90506105fe8382610e2b565b60006105fe838361260f565b6000611d9b61117b565b611dc483611dac8660200151612809565b84611dba8860400151612809565b8860600151612b13565b949350505050565b60006105fe838361162f565b6000611de261117b565b611dc483611df38660200151612809565b84611e018860400151612809565b8860600151612b90565b60006105fe8383612761565b6000610528611e36611e276106b3565b670de0b6b3a764000090610e2b565b8390612761565b6000611e4761089f565b6001600160a01b031663aaabadc56040518163ffffffff1660e01b815260040160206040518083038186803b158015611e7f57600080fd5b505afa158015611e93573d6000803e3d6000fd5b505050506040513d601f19601f8201168201806040525081019061061891906146e3565b60606000611ec361201e565b927f000000000000000000000000000000000000000000000000000000000000000092509050565b670de0b6b3a764000060005b8351811015611f4d57611f43611f3c858381518110611f1257fe5b6020026020010151858481518110611f2657fe5b6020026020010151612c0690919063ffffffff16565b839061260f565b9150600101611ef7565b5061052860008211610137610ff0565b6000611f676110de565b82604051602001610838929190614a71565b60006060611f8561117b565b6000611f9084612c55565b9050611fab6000826002811115611fa357fe5b1460ce610ff0565b6060611fb685612c6b565b9050611fca611fc3611321565b8251610df6565b611fd481876118fd565b6060611fde611eb7565b5090506000611fed8284611eeb565b90506000611ffd8261071b611321565b600992909255509a91995090975050505050505050565b6106af8282612c81565b6060600061202a611321565b905060608167ffffffffffffffff8111801561204557600080fd5b5060405190808252806020026020018201604052801561206f578160200160208202803683370190505b5090508115611719577f0000000000000000000000000000000000000000000000000000000000000000816000815181106120a657fe5b6020026020010181815250506001821115611719577f0000000000000000000000000000000000000000000000000000000000000000816001815181106120e957fe5b6020026020010181815250506002821115611719577f00000000000000000000000000000000000000000000000000000000000000008160028151811061212c57fe5b6020026020010181815250506003821115611719577f00000000000000000000000000000000000000000000000000000000000000008160038151811061216f57fe5b6020026020010181815250506004821115611719577f0000000000000000000000000000000000000000000000000000000000000000816004815181106121b257fe5b6020026020010181815250506005821115611719577f0000000000000000000000000000000000000000000000000000000000000000816005815181106121f557fe5b6020026020010181815250506006821115611719577f00000000000000000000000000000000000000000000000000000000000000008160068151811061223857fe5b6020026020010181815250506007821115611719577f0000000000000000000000000000000000000000000000000000000000000000816007815181106118eb57fe5b60028151101561228a5761053f565b60008160008151811061229957fe5b602002602001015190506000600190505b82518110156114765760008382815181106122c157fe5b602002602001015190506122ea816001600160a01b0316846001600160a01b0316106065610ff0565b91506001016122aa565b600073ba1ba1ba1ba1ba1ba1ba1ba1ba1ba1ba1ba1ba1b61231361087b565b6001600160a01b03161415801561232e575061232e83612d0f565b156123565761233b61087b565b6001600160a01b0316336001600160a01b0316149050610528565b61235e611e3d565b6001600160a01b0316639be2a8848484306040518463ffffffff1660e01b815260040161238d93929190614b1f565b60206040518083038186803b1580156123a557600080fd5b505afa1580156123b9573d6000803e3d6000fd5b505050506040513d601f19601f820116820180604052508101906123dd919061458a565b9050610528565b7f08c379a0000000000000000000000000000000000000000000000000000000006000908152602060045260076024526642414c23000030600a808404818106603090810160081b95839006959095019082900491820690940160101b939093010160c81b604452606490fd5b60006124608484111583610ff0565b5050900390565b4690565b606080612476611321565b67ffffffffffffffff8111801561248c57600080fd5b506040519080825280602002602001820160405280156124b6578160200160208202803683370190505b509050826124c5579050612512565b6124f88887815181106124d457fe5b60200260200101518888815181106124e857fe5b6020026020010151878787612d73565b81878151811061250457fe5b602090810291909101015290505b9695505050505050565b60005b612527611321565b8110156125815761256284828151811061253d57fe5b602002602001015184838151811061255157fe5b60200260200101518463ffffffff16565b84828151811061256e57fe5b602090810291909101015260010161251f565b50505050565b60006060600061259684612c55565b905060008160028111156125a657fe5b14156125c1576125b7878786612deb565b92509250506125ed565b60018160028111156125cf57fe5b14156125df576125b78785612ece565b6125b787878787612f00565b505b94509492505050565b60006126058484610e2b61251c565b611dc48285611eeb565b600082820261262984158061162857508385838161162557fe5b670de0b6b3a764000090049392505050565b6126526001600160a01b038316151561019b610ff0565b61265e82600083611476565b6001600160a01b03821660009081526020819052604090205461268490826101a1612451565b6001600160a01b0383166000908152602081905260409020556002546126aa9082612f6f565b6002556040516000906001600160a01b038416907fddf252ad1be2c89b69c2b068fc378daa952ba7f163c4a11628f55a4df523b3ef906126eb908590614b16565b60405180910390a35050565b60006060600061270684612c55565b9050600181600281111561271657fe5b1415612728576125b787878787612f7d565b600281600281111561273657fe5b1415612747576125b7878786612fda565b6125eb6101366123e4565b60006126058484610e0361251c565b60006127708215156004610ff0565b8261277d57506000610528565b670de0b6b3a7640000838102906127979085838161166557fe5b8260018203816127a357fe5b04600101915050610528565b60008282026127c984158061162857508385838161162557fe5b806127d8576000915050610528565b670de0b6b3a76400007fffffffffffffffffffffffffffffffffffffffffffffffffffffffffffffffff82016127a3565b60007f00000000000000000000000000000000000000000000000000000000000000006001600160a01b0316826001600160a01b0316141561286c57507f0000000000000000000000000000000000000000000000000000000000000000610740565b7f00000000000000000000000000000000000000000000000000000000000000006001600160a01b0316826001600160a01b031614156128cd57507f0000000000000000000000000000000000000000000000000000000000000000610740565b7f00000000000000000000000000000000000000000000000000000000000000006001600160a01b0316826001600160a01b0316141561292e57507f0000000000000000000000000000000000000000000000000000000000000000610740565b7f00000000000000000000000000000000000000000000000000000000000000006001600160a01b0316826001600160a01b0316141561298f57507f0000000000000000000000000000000000000000000000000000000000000000610740565b7f00000000000000000000000000000000000000000000000000000000000000006001600160a01b0316826001600160a01b031614156129f057507f0000000000000000000000000000000000000000000000000000000000000000610740565b7f00000000000000000000000000000000000000000000000000000000000000006001600160a01b0316826001600160a01b03161415612a5157507f0000000000000000000000000000000000000000000000000000000000000000610740565b7f00000000000000000000000000000000000000000000000000000000000000006001600160a01b0316826001600160a01b03161415612ab257507f0000000000000000000000000000000000000000000000000000000000000000610740565b7f00000000000000000000000000000000000000000000000000000000000000006001600160a01b0316826001600160a01b03161415611d5957507f0000000000000000000000000000000000000000000000000000000000000000610740565b6000612b35612b2a87670429d069189e000061260f565b831115610130610ff0565b6000612b418784610e03565b90506000612b4f8883612761565b90506000612b5d888761162f565b90506000612b6b8383613087565b9050612b80612b79826130b3565b899061260f565b9450505050505b95945050505050565b6000612bb2612ba785670429d069189e000061260f565b831115610131610ff0565b6000612bc8612bc18685610e2b565b8690612761565b90506000612bd68588612761565b90506000612be48383613087565b90506000612bfa82670de0b6b3a7640000610e2b565b9050612b808a826127af565b600080612c1384846130d9565b90506000612c2d612c26836127106127af565b6001610e03565b905080821015612c4257600092505050610528565b612c4c8282610e2b565b92505050610528565b600081806020019051810190610528919061474d565b6060818060200190518101906105fe9190614813565b612c8d60008383611476565b600254612c9a9082610e03565b6002556001600160a01b038216600090815260208190526040902054612cc09082610e03565b6001600160a01b0383166000818152602081905260408082209390935591519091907fddf252ad1be2c89b69c2b068fc378daa952ba7f163c4a11628f55a4df523b3ef906126eb908590614b16565b6000612d3a7f38e9922e00000000000000000000000000000000000000000000000000000000610803565b8214806105285750612d6b7f50dd6ed900000000000000000000000000000000000000000000000000000000610803565b909114919050565b6000838311612d8457506000612b87565b6000612d908585612761565b90506000612da6670de0b6b3a76400008861162f565b9050612dba826709b6e64a8ec6000061320c565b91506000612dc88383613087565b90506000612ddf612dd8836130b3565b8b9061260f565b9050612b80818761260f565b60006060612df761117b565b600080612e0385613223565b91509150612e1b612e12611321565b82106064610ff0565b6060612e25611321565b67ffffffffffffffff81118015612e3b57600080fd5b50604051908082528060200260200182016040528015612e65578160200160208202803683370190505b509050612ea9888381518110612e7757fe5b6020026020010151888481518110612e8b57fe5b602002602001015185612e9c610542565b612ea46106b3565b613245565b818381518110612eb557fe5b6020908102919091010152919791965090945050505050565b600060606000612edd8461330b565b90506060612ef38683612eee610542565b613321565b9196919550909350505050565b60006060612f0c61117b565b60606000612f19856133d3565b91509150612f2a82516106d5611321565b612f3482876118fd565b6000612f51898985612f44610542565b612f4c6106b3565b6133eb565b9050612f618282111560cf610ff0565b989197509095505050505050565b60006105fe83836001612451565b60006060806000612f8d856133d3565b91509150612fa3612f9c611321565b8351610df6565b612fad82876118fd565b6000612fca898985612fbd610542565b612fc56106b3565b613619565b9050612f618282101560d0610ff0565b60006060600080612fea85613223565b91509150612ff9612e12611321565b6060613003611321565b67ffffffffffffffff8111801561301957600080fd5b50604051908082528060200260200182016040528015613043578160200160208202803683370190505b509050612ea988838151811061305557fe5b602002602001015188848151811061306957fe5b60200260200101518561307a610542565b6130826106b3565b61382b565b60008061309484846130d9565b905060006130a7612c26836127106127af565b9050612b878282610e03565b6000670de0b6b3a764000082106130cb576000610528565b50670de0b6b3a76400000390565b6000816130ef5750670de0b6b3a7640000610528565b826130fc57506000610528565b6131297f800000000000000000000000000000000000000000000000000000000000000084106006610ff0565b8261314f770bce5086492111aea88f4bb1ca6bcf584181ea8059f7653284106007610ff0565b826000670c7d713b49da0000831380156131705750670f43fc2c04ee000083125b156131a7576000613180846138d6565b9050670de0b6b3a764000080820784020583670de0b6b3a7640000830502019150506131b5565b816131b184613a0d565b0290505b670de0b6b3a764000090056132037ffffffffffffffffffffffffffffffffffffffffffffffffdc702bd3a30fc000082128015906131fc575068070c1cc73b00c800008213155b6008610ff0565b61251281613dad565b60008183101561321c57816105fe565b5090919050565b6000808280602001905181019061323a91906147dd565b909590945092505050565b60008061325c846132568188610e2b565b90612761565b90506132756709b6e64a8ec60000821015610132610ff0565b600061329361328c670de0b6b3a76400008961162f565b8390613087565b905060006132aa6132a3836130b3565b8a9061260f565b905060006132b7896130b3565b905060006132c583836127af565b905060006132d38483610e2b565b90506132fb6132f46132ed670de0b6b3a76400008b610e2b565b849061260f565b8290610e03565b9c9b505050505050505050505050565b6000818060200190518101906105fe91906147b0565b6060600061332f848461162f565b90506060855167ffffffffffffffff8111801561334b57600080fd5b50604051908082528060200260200182016040528015613375578160200160208202803683370190505b50905060005b86518110156133c9576133aa8388838151811061339457fe5b602002602001015161260f90919063ffffffff16565b8282815181106133b657fe5b602090810291909101015260010161337b565b5095945050505050565b606060008280602001905181019061323a9190614769565b60006060845167ffffffffffffffff8111801561340757600080fd5b50604051908082528060200260200182016040528015613431578160200160208202803683370190505b5090506000805b88518110156134f65761349189828151811061345057fe5b602002602001015161325689848151811061346757fe5b60200260200101518c858151811061347b57fe5b6020026020010151610e2b90919063ffffffff16565b83828151811061349d57fe5b6020026020010181815250506134ec6134e58983815181106134bb57fe5b60200260200101518584815181106134cf57fe5b60200260200101516127af90919063ffffffff16565b8390610e03565b9150600101613438565b50670de0b6b3a764000060005b89518110156135f857600084828151811061351a57fe5b602002602001015184111561357a576000613543613537866130b3565b8d858151811061339457fe5b90506000613557828c868151811061347b57fe5b90506135716134e5611e36670de0b6b3a76400008c610e2b565b92505050613591565b88828151811061358657fe5b602002602001015190505b60006135ba8c84815181106135a257fe5b6020026020010151610720848f878151811061347b57fe5b90506135ec6135e58c85815181106135ce57fe5b602002602001015183612c0690919063ffffffff16565b859061260f565b93505050600101613503565b5061360c613605826130b3565b87906127af565b9998505050505050505050565b60006060845167ffffffffffffffff8111801561363557600080fd5b5060405190808252806020026020018201604052801561365f578160200160208202803683370190505b5090506000805b8851811015613707576136bf89828151811061367e57fe5b602002602001015161072089848151811061369557fe5b60200260200101518c85815181106136a957fe5b6020026020010151610e0390919063ffffffff16565b8382815181106136cb57fe5b6020026020010181815250506136fd6134e58983815181106136e957fe5b602002602001015185848151811061339457fe5b9150600101613666565b50670de0b6b3a764000060005b89518110156137e85760008385838151811061372c57fe5b6020026020010151111561378857600061375161353786670de0b6b3a7640000610e2b565b90506000613765828c868151811061347b57fe5b905061377f6134e5611f3c670de0b6b3a76400008c610e2b565b9250505061379f565b88828151811061379457fe5b602002602001015190505b60006137c88c84815181106137b057fe5b6020026020010151610720848f87815181106136a957fe5b90506137dc6135e58c85815181106135ce57fe5b93505050600101613714565b50670de0b6b3a764000081111561381f5761381561380e82670de0b6b3a7640000610e2b565b879061260f565b9350505050612b87565b60009350505050612b87565b60008061383c846132568188610e03565b90506138556729a2241af62c0000821115610133610ff0565b600061386c61328c670de0b6b3a764000089612761565b9050600061388c61388583670de0b6b3a7640000610e2b565b8a906127af565b90506000613899896130b3565b905060006138a783836127af565b905060006138b58483610e2b565b90506132fb6132f46138cf670de0b6b3a76400008b610e2b565b8490612761565b670de0b6b3a7640000026000806ec097ce7bc90715b34b9f1000000000808401907fffffffffffffffffffffffffffffffffff3f68318436f8ea4cb460f0000000008501028161392257fe5b05905060006ec097ce7bc90715b34b9f100000000082800205905081806ec097ce7bc90715b34b9f100000000081840205915060038205016ec097ce7bc90715b34b9f100000000082840205915060058205016ec097ce7bc90715b34b9f100000000082840205915060078205016ec097ce7bc90715b34b9f100000000082840205915060098205016ec097ce7bc90715b34b9f1000000000828402059150600b8205016ec097ce7bc90715b34b9f1000000000828402059150600d8205016ec097ce7bc90715b34b9f1000000000828402059150600f826002919005919091010295945050505050565b6000670de0b6b3a7640000821215613a4a57613a40826ec097ce7bc90715b34b9f100000000081613a3a57fe5b05613a0d565b6000039050610740565b60007e1600ef3172e58d2e933ec884fde10064c63b5372d805e203c00000000000008312613a9b57770195e54c5dd42177f53a27172fa9ec630262827000000000830592506806f05b59d3b2000000015b73011798004d755d3c8bc8e03204cf44619e0000008312613ad3576b1425982cf597cd205cef7380830592506803782dace9d9000000015b606492830292026e01855144814a7ff805980ff00840008312613b1b576e01855144814a7ff805980ff008400068056bc75e2d63100000840205925068ad78ebc5ac62000000015b6b02df0ab5a80a22c61ab5a7008312613b56576b02df0ab5a80a22c61ab5a70068056bc75e2d6310000084020592506856bc75e2d631000000015b693f1fce3da636ea5cf8508312613b8d57693f1fce3da636ea5cf85068056bc75e2d631000008402059250682b5e3af16b18800000015b690127fa27722cc06cc5e28312613bc457690127fa27722cc06cc5e268056bc75e2d6310000084020592506815af1d78b58c400000015b68280e60114edb805d038312613bf95768280e60114edb805d0368056bc75e2d631000008402059250680ad78ebc5ac6200000015b680ebc5fb417461211108312613c2457680ebc5fb4174612111068056bc75e2d631000009384020592015b6808f00f760a4b2db55d8312613c59576808f00f760a4b2db55d68056bc75e2d6310000084020592506802b5e3af16b1880000015b6806f5f17757889379378312613c8e576806f5f177578893793768056bc75e2d63100000840205925068015af1d78b58c40000015b6806248f33704b2866038312613cc2576806248f33704b28660368056bc75e2d63100000840205925067ad78ebc5ac620000015b6805c548670b9510e7ac8312613cf6576805c548670b9510e7ac68056bc75e2d6310000084020592506756bc75e2d6310000015b600068056bc75e2d63100000840168056bc75e2d631000008086030281613d1957fe5b059050600068056bc75e2d63100000828002059050818068056bc75e2d63100000818402059150600382050168056bc75e2d63100000828402059150600582050168056bc75e2d63100000828402059150600782050168056bc75e2d63100000828402059150600982050168056bc75e2d63100000828402059150600b820501600202606485820105979650505050505050565b6000613df27ffffffffffffffffffffffffffffffffffffffffffffffffdc702bd3a30fc00008312158015613deb575068070c1cc73b00c800008313155b6009610ff0565b6000821215613e2657613e0782600003613dad565b6ec097ce7bc90715b34b9f100000000081613e1e57fe5b059050610740565b60006806f05b59d3b20000008312613e7c57507ffffffffffffffffffffffffffffffffffffffffffffffff90fa4a62c4e00000090910190770195e54c5dd42177f53a27172fa9ec630262827000000000613ec8565b6803782dace9d90000008312613ec457507ffffffffffffffffffffffffffffffffffffffffffffffffc87d2531627000000909101906b1425982cf597cd205cef7380613ec8565b5060015b6064929092029168056bc75e2d6310000068ad78ebc5ac620000008412613f2e577fffffffffffffffffffffffffffffffffffffffffffffff5287143a539e0000009093019268056bc75e2d631000006e01855144814a7ff805980ff008400082020590505b6856bc75e2d6310000008412613f80577fffffffffffffffffffffffffffffffffffffffffffffffa9438a1d29cf0000009093019268056bc75e2d631000006b02df0ab5a80a22c61ab5a70082020590505b682b5e3af16b188000008412613fd0577fffffffffffffffffffffffffffffffffffffffffffffffd4a1c50e94e78000009093019268056bc75e2d63100000693f1fce3da636ea5cf85082020590505b6815af1d78b58c4000008412614020577fffffffffffffffffffffffffffffffffffffffffffffffea50e2874a73c000009093019268056bc75e2d63100000690127fa27722cc06cc5e282020590505b680ad78ebc5ac6200000841261406f577ffffffffffffffffffffffffffffffffffffffffffffffff5287143a539e000009093019268056bc75e2d6310000068280e60114edb805d0382020590505b68056bc75e2d6310000084126140be577ffffffffffffffffffffffffffffffffffffffffffffffffa9438a1d29cf000009093019268056bc75e2d63100000680ebc5fb4174612111082020590505b6802b5e3af16b1880000841261410d577ffffffffffffffffffffffffffffffffffffffffffffffffd4a1c50e94e7800009093019268056bc75e2d631000006808f00f760a4b2db55d82020590505b68015af1d78b58c40000841261415c577ffffffffffffffffffffffffffffffffffffffffffffffffea50e2874a73c00009093019268056bc75e2d631000006806f5f177578893793782020590505b68056bc75e2d631000008481019085906002908280020505918201919050600368056bc75e2d631000008783020505918201919050600468056bc75e2d631000008783020505918201919050600568056bc75e2d631000008783020505918201919050600668056bc75e2d631000008783020505918201919050600768056bc75e2d631000008783020505918201919050600868056bc75e2d631000008783020505918201919050600968056bc75e2d631000008783020505918201919050600a68056bc75e2d631000008783020505918201919050600b68056bc75e2d631000008783020505918201919050600c68056bc75e2d631000008783020505918201919050606468056bc75e2d63100000848402058502059695505050505050565b803561052881614c6d565b600082601f830112614298578081fd5b81516142ab6142a682614c4d565b614c26565b8181529150602080830190848101818402860182018710156142cc57600080fd5b60005b848110156142eb578151845292820192908201906001016142cf565b505050505092915050565b600082601f830112614306578081fd5b813567ffffffffffffffff81111561431c578182fd5b61432f6020601f19601f84011601614c26565b915080825283602082850101111561434657600080fd5b8060208401602084013760009082016020015292915050565b80356002811061052857600080fd5b60006020828403121561437f578081fd5b81356105fe81614c6d565b6000806040838503121561439c578081fd5b82356143a781614c6d565b915060208301356143b781614c6d565b809150509250929050565b6000806000606084860312156143d6578081fd5b83356143e181614c6d565b925060208401356143f181614c6d565b929592945050506040919091013590565b600080600080600080600060e0888a03121561441c578283fd5b873561442781614c6d565b9650602088013561443781614c6d565b95506040880135945060608801359350608088013560ff8116811461445a578384fd5b9699959850939692959460a0840135945060c09093013592915050565b60008060408385031215614489578182fd5b823561449481614c6d565b946020939093013593505050565b6000806000606084860312156144b6578081fd5b835167ffffffffffffffff808211156144cd578283fd5b818601915086601f8301126144e0578283fd5b81516144ee6142a682614c4d565b80828252602080830192508086018b82838702890101111561450e578788fd5b8796505b8487101561453957805161452581614c6d565b845260019690960195928101928101614512565b508901519097509350505080821115614550578283fd5b5061455d86828701614288565b925050604084015190509250925092565b60006020828403121561457f578081fd5b81356105fe81614c82565b60006020828403121561459b578081fd5b81516105fe81614c82565b600080600080600080600060e0888a0312156145c0578081fd5b873596506020808901356145d381614c6d565b965060408901356145e381614c6d565b9550606089013567ffffffffffffffff808211156145ff578384fd5b818b0191508b601f830112614612578384fd5b81356146206142a682614c4d565b8082825285820191508585018f87888602880101111561463e578788fd5b8795505b83861015614660578035835260019590950194918601918601614642565b509850505060808b0135955060a08b0135945060c08b0135925080831115614686578384fd5b50506146948a828b016142f6565b91505092959891949750929550565b6000602082840312156146b4578081fd5b81357fffffffff00000000000000000000000000000000000000000000000000000000811681146105fe578182fd5b6000602082840312156146f4578081fd5b81516105fe81614c6d565b60008060408385031215614711578182fd5b823561471c81614c6d565b9150602083013567ffffffffffffffff811115614737578182fd5b614743858286016142f6565b9150509250929050565b60006020828403121561475e578081fd5b81516105fe81614c90565b60008060006060848603121561477d578081fd5b835161478881614c90565b602085015190935067ffffffffffffffff8111156147a4578182fd5b61455d86828701614288565b600080604083850312156147c2578182fd5b82516147cd81614c90565b6020939093015192949293505050565b6000806000606084860312156147f1578081fd5b83516147fc81614c90565b602085015160409095015190969495509392505050565b60008060408385031215614825578182fd5b825161483081614c90565b602084015190925067ffffffffffffffff81111561484c578182fd5b61474385828601614288565b60008060006060848603121561486c578081fd5b833567ffffffffffffffff80821115614883578283fd5b8186019150610120808389031215614899578384fd5b6148a281614c26565b90506148ae888461435f565b81526148bd886020850161427d565b60208201526148cf886040850161427d565b6040820152606083013560608201526080830135608082015260a083013560a08201526148ff8860c0850161427d565b60c08201526149118860e0850161427d565b60e08201526101008084013583811115614929578586fd5b6149358a8287016142f6565b9183019190915250976020870135975060409096013595945050505050565b600060208284031215614965578081fd5b5035919050565b60008060008060808587031215614981578182fd5b84519350602085015192506040850151915060608501516149a181614c6d565b939692955090935050565b6000815180845260208085019450808401835b838110156149db578151875295820195908201906001016149bf565b509495945050505050565b60008151808452815b81811015614a0b576020818501810151868301820152016149ef565b81811115614a1c5782602083870101525b50601f01601f19169290920160200192915050565b9182527fffffffff0000000000000000000000000000000000000000000000000000000016602082015260240190565b6000828483379101908152919050565b7f190100000000000000000000000000000000000000000000000000000000000081526002810192909252602282015260420190565b6001600160a01b0391909116815260200190565b6000602082526105fe60208301846149ac565b600060408252614ae160408301856149ac565b8281036020840152612b8781856149ac565b901515815260200190565b92151583526020830191909152604082015260600190565b90815260200190565b9283526001600160a01b03918216602084015216604082015260600190565b9586526001600160a01b0394851660208701529290931660408501526060840152608083019190915260a082015260c00190565b9485526020850193909352604084019190915260608301526001600160a01b0316608082015260a00190565b600083825260406020830152611dc460408301846149e6565b9182526001600160a01b0316602082015260400190565b93845260ff9290921660208401526040830152606082015260800190565b6000602082526105fe60208301846149e6565b600083825260406020830152611dc460408301846149ac565b60ff91909116815260200190565b60405181810167ffffffffffffffff81118282101715614c4557600080fd5b604052919050565b600067ffffffffffffffff821115614c63578081fd5b5060209081020190565b6001600160a01b038116811461053f57600080fd5b801515811461053f57600080fd5b6003811061053f57600080fdfea26469706673582212207fb54600aac7db8ba0e9df85f1c1b3dd5b48d4580ba5c17c8cd16dc1a1662d3864736f6c63430007010033",
  "devdoc": {
    "kind": "dev",
    "methods": {
      "create(address[],uint256[],uint256,address)": {
        "details": "Deploys a new `WeightedPool`."
      },
      "getCreationCode()": {
        "details": "Returns the creation code of the contract this factory creates."
      },
      "getCreationCodeContracts()": {
        "details": "Returns the two addresses where the creation code of the contract crated by this factory is stored."
      },
      "getPauseConfiguration()": {
        "details": "Returns the current `TemporarilyPausable` configuration that will be applied to Pools created by this factory. `pauseWindowDuration` will decrease over time until it reaches zero, at which point both it and `bufferPeriodDuration` will be zero forever, meaning deployed Pools will not be pausable."
      },
      "getVault()": {
        "details": "Returns the Vault's address."
      },
      "isPoolFromFactory(address)": {
        "details": "Returns true if `pool` was created by this factory."
      }
    },
    "version": 1
  },
  "userdoc": {
    "kind": "user",
    "methods": {},
    "version": 1
  },
  "storageLayout": {
    "storage": [
      {
        "astId": 18042,
        "contract": "contracts/weighted-pools/WeightedPoolFactory.sol:WeightedPoolFactory",
        "label": "_isPoolFromFactory",
        "offset": 0,
        "slot": "0",
        "type": "t_mapping(t_address,t_bool)"
      }
    ],
    "types": {
      "t_address": {
        "encoding": "inplace",
        "label": "address",
        "numberOfBytes": "20"
      },
      "t_bool": {
        "encoding": "inplace",
        "label": "bool",
        "numberOfBytes": "1"
      },
      "t_mapping(t_address,t_bool)": {
        "encoding": "mapping",
        "key": "t_address",
        "label": "mapping(address => bool)",
        "numberOfBytes": "32",
        "value": "t_bool"
      }
    }
  }
}